{
  "contractName": "Landemic",
  "abi": [
    {
      "constant": true,
      "inputs": [
        {
          "name": "interfaceId",
          "type": "bytes4"
        }
      ],
      "name": "supportsInterface",
      "outputs": [
        {
          "name": "",
          "type": "bool"
        }
      ],
      "payable": false,
      "stateMutability": "view",
      "type": "function"
    },
    {
      "constant": true,
      "inputs": [],
      "name": "name",
      "outputs": [
        {
          "name": "",
          "type": "string"
        }
      ],
      "payable": false,
      "stateMutability": "view",
      "type": "function"
    },
    {
      "constant": true,
      "inputs": [
        {
          "name": "tokenId",
          "type": "uint256"
        }
      ],
      "name": "getApproved",
      "outputs": [
        {
          "name": "",
          "type": "address"
        }
      ],
      "payable": false,
      "stateMutability": "view",
      "type": "function"
    },
    {
      "constant": false,
      "inputs": [
        {
          "name": "to",
          "type": "address"
        },
        {
          "name": "tokenId",
          "type": "uint256"
        }
      ],
      "name": "approve",
      "outputs": [],
      "payable": false,
      "stateMutability": "nonpayable",
      "type": "function"
    },
    {
      "constant": true,
      "inputs": [],
      "name": "totalSupply",
      "outputs": [
        {
          "name": "",
          "type": "uint256"
        }
      ],
      "payable": false,
      "stateMutability": "view",
      "type": "function"
    },
    {
      "constant": false,
      "inputs": [
        {
          "name": "from",
          "type": "address"
        },
        {
          "name": "to",
          "type": "address"
        },
        {
          "name": "tokenId",
          "type": "uint256"
        }
      ],
      "name": "transferFrom",
      "outputs": [],
      "payable": false,
      "stateMutability": "nonpayable",
      "type": "function"
    },
    {
      "constant": true,
      "inputs": [
        {
          "name": "owner",
          "type": "address"
        },
        {
          "name": "index",
          "type": "uint256"
        }
      ],
      "name": "tokenOfOwnerByIndex",
      "outputs": [
        {
          "name": "",
          "type": "uint256"
        }
      ],
      "payable": false,
      "stateMutability": "view",
      "type": "function"
    },
    {
      "constant": false,
      "inputs": [
        {
          "name": "from",
          "type": "address"
        },
        {
          "name": "to",
          "type": "address"
        },
        {
          "name": "tokenId",
          "type": "uint256"
        }
      ],
      "name": "safeTransferFrom",
      "outputs": [],
      "payable": false,
      "stateMutability": "nonpayable",
      "type": "function"
    },
    {
      "constant": true,
      "inputs": [],
      "name": "_basePrice",
      "outputs": [
        {
          "name": "",
          "type": "uint256"
        }
      ],
      "payable": false,
      "stateMutability": "view",
      "type": "function"
    },
    {
      "constant": true,
      "inputs": [],
      "name": "_defaultMultiple",
      "outputs": [
        {
          "name": "",
          "type": "uint16"
        }
      ],
      "payable": false,
      "stateMutability": "view",
      "type": "function"
    },
    {
      "constant": true,
      "inputs": [
        {
          "name": "index",
          "type": "uint256"
        }
      ],
      "name": "tokenByIndex",
      "outputs": [
        {
          "name": "",
          "type": "uint256"
        }
      ],
      "payable": false,
      "stateMutability": "view",
      "type": "function"
    },
    {
      "constant": true,
      "inputs": [
        {
          "name": "tokenId",
          "type": "uint256"
        }
      ],
      "name": "ownerOf",
      "outputs": [
        {
          "name": "",
          "type": "address"
        }
      ],
      "payable": false,
      "stateMutability": "view",
      "type": "function"
    },
    {
      "constant": true,
      "inputs": [],
      "name": "_bountyDivisor",
      "outputs": [
        {
          "name": "",
          "type": "uint8"
        }
      ],
      "payable": false,
      "stateMutability": "view",
      "type": "function"
    },
    {
      "constant": true,
      "inputs": [
        {
          "name": "owner",
          "type": "address"
        }
      ],
      "name": "balanceOf",
      "outputs": [
        {
          "name": "",
          "type": "uint256"
        }
      ],
      "payable": false,
      "stateMutability": "view",
      "type": "function"
    },
    {
      "constant": true,
      "inputs": [],
      "name": "symbol",
      "outputs": [
        {
          "name": "",
          "type": "string"
        }
      ],
      "payable": false,
      "stateMutability": "view",
      "type": "function"
    },
    {
      "constant": false,
      "inputs": [
        {
          "name": "to",
          "type": "address"
        },
        {
          "name": "approved",
          "type": "bool"
        }
      ],
      "name": "setApprovalForAll",
      "outputs": [],
      "payable": false,
      "stateMutability": "nonpayable",
      "type": "function"
    },
    {
      "constant": true,
      "inputs": [],
      "name": "_owner",
      "outputs": [
        {
          "name": "",
          "type": "address"
        }
      ],
      "payable": false,
      "stateMutability": "view",
      "type": "function"
    },
    {
      "constant": false,
      "inputs": [
        {
          "name": "from",
          "type": "address"
        },
        {
          "name": "to",
          "type": "address"
        },
        {
          "name": "tokenId",
          "type": "uint256"
        },
        {
          "name": "_data",
          "type": "bytes"
        }
      ],
      "name": "safeTransferFrom",
      "outputs": [],
      "payable": false,
      "stateMutability": "nonpayable",
      "type": "function"
    },
    {
      "constant": true,
      "inputs": [],
      "name": "failedPayoutsSum",
      "outputs": [
        {
          "name": "",
          "type": "uint256"
        }
      ],
      "payable": false,
      "stateMutability": "view",
      "type": "function"
    },
    {
      "constant": true,
      "inputs": [
        {
          "name": "",
          "type": "address"
        }
      ],
      "name": "failedPayouts",
      "outputs": [
        {
          "name": "",
          "type": "uint256"
        }
      ],
      "payable": false,
      "stateMutability": "view",
      "type": "function"
    },
    {
      "constant": true,
      "inputs": [
        {
          "name": "owner",
          "type": "address"
        },
        {
          "name": "operator",
          "type": "address"
        }
      ],
      "name": "isApprovedForAll",
      "outputs": [
        {
          "name": "",
          "type": "bool"
        }
      ],
      "payable": false,
      "stateMutability": "view",
      "type": "function"
    },
    {
      "constant": true,
      "inputs": [],
      "name": "_baseURL",
      "outputs": [
        {
          "name": "",
          "type": "string"
        }
      ],
      "payable": false,
      "stateMutability": "view",
      "type": "function"
    },
    {
      "constant": true,
      "inputs": [
        {
          "name": "",
          "type": "uint256"
        }
      ],
      "name": "_prices",
      "outputs": [
        {
          "name": "lastPrice",
          "type": "uint240"
        },
        {
          "name": "multiple",
          "type": "uint16"
        }
      ],
      "payable": false,
      "stateMutability": "view",
      "type": "function"
    },
    {
      "anonymous": false,
      "inputs": [
        {
          "indexed": true,
          "name": "from",
          "type": "address"
        },
        {
          "indexed": true,
          "name": "to",
          "type": "address"
        },
        {
          "indexed": true,
          "name": "tokenId",
          "type": "uint256"
        }
      ],
      "name": "Transfer",
      "type": "event"
    },
    {
      "anonymous": false,
      "inputs": [
        {
          "indexed": true,
          "name": "owner",
          "type": "address"
        },
        {
          "indexed": true,
          "name": "approved",
          "type": "address"
        },
        {
          "indexed": true,
          "name": "tokenId",
          "type": "uint256"
        }
      ],
      "name": "Approval",
      "type": "event"
    },
    {
      "anonymous": false,
      "inputs": [
        {
          "indexed": true,
          "name": "owner",
          "type": "address"
        },
        {
          "indexed": true,
          "name": "operator",
          "type": "address"
        },
        {
          "indexed": false,
          "name": "approved",
          "type": "bool"
        }
      ],
      "name": "ApprovalForAll",
      "type": "event"
    },
    {
      "constant": true,
      "inputs": [
        {
          "name": "tokenId",
          "type": "uint256"
        }
      ],
      "name": "_lastPrice",
      "outputs": [
        {
          "name": "",
          "type": "uint256"
        }
      ],
      "payable": false,
      "stateMutability": "view",
      "type": "function"
    },
    {
      "constant": true,
      "inputs": [
        {
          "name": "tokenId",
          "type": "uint256"
        }
      ],
      "name": "_multiple",
      "outputs": [
        {
          "name": "",
          "type": "uint16"
        }
      ],
      "payable": false,
      "stateMutability": "view",
      "type": "function"
    },
    {
      "constant": false,
      "inputs": [
        {
          "name": "basePrice",
          "type": "uint256"
        }
      ],
      "name": "setBasePrice",
      "outputs": [],
      "payable": false,
      "stateMutability": "nonpayable",
      "type": "function"
    },
    {
      "constant": false,
      "inputs": [
        {
          "name": "bountyDivisor",
          "type": "uint8"
        }
      ],
      "name": "setBountyDivisor",
      "outputs": [],
      "payable": false,
      "stateMutability": "nonpayable",
      "type": "function"
    },
    {
      "constant": false,
      "inputs": [
        {
          "name": "baseURL",
          "type": "string"
        }
      ],
      "name": "setBaseURL",
      "outputs": [],
      "payable": false,
      "stateMutability": "nonpayable",
      "type": "function"
    },
    {
      "constant": false,
      "inputs": [
        {
          "name": "owner",
          "type": "address"
        }
      ],
      "name": "setOwner",
      "outputs": [],
      "payable": false,
      "stateMutability": "nonpayable",
      "type": "function"
    },
    {
      "constant": false,
      "inputs": [
        {
          "name": "amount",
          "type": "uint256"
        }
      ],
      "name": "withdraw",
      "outputs": [],
      "payable": false,
      "stateMutability": "nonpayable",
      "type": "function"
    },
    {
      "constant": false,
      "inputs": [],
      "name": "withdrawProfit",
      "outputs": [],
      "payable": false,
      "stateMutability": "nonpayable",
      "type": "function"
    },
    {
      "constant": true,
      "inputs": [],
      "name": "getAllOwned",
      "outputs": [
        {
          "name": "",
          "type": "uint256[]"
        },
        {
          "name": "",
          "type": "address[]"
        }
      ],
      "payable": false,
      "stateMutability": "view",
      "type": "function"
    },
    {
      "constant": true,
      "inputs": [
        {
          "name": "tokenId",
          "type": "uint256"
        }
      ],
      "name": "metadataForToken",
      "outputs": [
        {
          "name": "",
          "type": "uint256"
        },
        {
          "name": "",
          "type": "address"
        },
        {
          "name": "",
          "type": "uint16"
        },
        {
          "name": "",
          "type": "uint256"
        }
      ],
      "payable": false,
      "stateMutability": "view",
      "type": "function"
    },
    {
      "constant": true,
      "inputs": [
        {
          "name": "tokenId",
          "type": "uint256"
        }
      ],
      "name": "priceOf",
      "outputs": [
        {
          "name": "",
          "type": "uint256"
        }
      ],
      "payable": false,
      "stateMutability": "view",
      "type": "function"
    },
    {
      "constant": true,
      "inputs": [
        {
          "name": "tokenId",
          "type": "uint256"
        }
      ],
      "name": "multipleOf",
      "outputs": [
        {
          "name": "",
          "type": "uint16"
        }
      ],
      "payable": false,
      "stateMutability": "view",
      "type": "function"
    },
    {
      "constant": false,
      "inputs": [
        {
          "name": "tokenId",
          "type": "uint256"
        },
        {
          "name": "multiple",
          "type": "uint16"
        }
      ],
      "name": "setMultiple",
      "outputs": [],
      "payable": false,
      "stateMutability": "nonpayable",
      "type": "function"
    },
    {
      "constant": false,
      "inputs": [
        {
          "name": "tokenId",
          "type": "uint256"
        }
      ],
      "name": "grabCode",
      "outputs": [],
      "payable": true,
      "stateMutability": "payable",
      "type": "function"
    },
    {
      "constant": false,
      "inputs": [
        {
          "name": "to",
          "type": "address"
        }
      ],
      "name": "pullBounty",
      "outputs": [],
      "payable": false,
      "stateMutability": "nonpayable",
      "type": "function"
    },
    {
      "constant": true,
      "inputs": [
        {
          "name": "_tokenId",
          "type": "uint256"
        }
      ],
      "name": "tokenURI",
      "outputs": [
        {
          "name": "",
          "type": "string"
        }
      ],
      "payable": false,
      "stateMutability": "view",
      "type": "function"
    },
    {
      "constant": true,
      "inputs": [
        {
          "name": "tokenId",
          "type": "uint256"
        }
      ],
      "name": "northOfToken",
      "outputs": [
        {
          "name": "",
          "type": "uint256"
        }
      ],
      "payable": false,
      "stateMutability": "pure",
      "type": "function"
    },
    {
      "constant": true,
      "inputs": [
        {
          "name": "tokenId",
          "type": "uint256"
        }
      ],
      "name": "southOfToken",
      "outputs": [
        {
          "name": "",
          "type": "uint256"
        }
      ],
      "payable": false,
      "stateMutability": "pure",
      "type": "function"
    },
    {
      "constant": true,
      "inputs": [
        {
          "name": "tokenId",
          "type": "uint256"
        }
      ],
      "name": "eastOfToken",
      "outputs": [
        {
          "name": "",
          "type": "uint256"
        }
      ],
      "payable": false,
      "stateMutability": "pure",
      "type": "function"
    },
    {
      "constant": true,
      "inputs": [
        {
          "name": "tokenId",
          "type": "uint256"
        }
      ],
      "name": "westOfToken",
      "outputs": [
        {
          "name": "",
          "type": "uint256"
        }
      ],
      "payable": false,
      "stateMutability": "pure",
      "type": "function"
    },
    {
      "constant": true,
      "inputs": [
        {
          "name": "tokenId",
          "type": "uint256"
        }
      ],
      "name": "neighborsOfToken",
      "outputs": [
        {
          "name": "",
          "type": "uint256[4]"
        }
      ],
      "payable": false,
      "stateMutability": "pure",
      "type": "function"
    }
  ],
  "bytecode": "0x6602e0b0d244a000600c55600d8054601460ff19909116811762ffff00191661640017630100000060b860020a031916336301000000021790915560c060405260808190527f68747470733a2f2f6c616e64656d69632e696f2f00000000000000000000000060a09081526200007991600e919062000258565b50604080518082018252600881527f4c616e64656d69630000000000000000000000000000000000000000000000006020808301919091528251808401909352600483527f4c414e440000000000000000000000000000000000000000000000000000000090830152908181620001197f01ffc9a700000000000000000000000000000000000000000000000000000000640100000000620001eb810204565b6200014d7f80ac58cd00000000000000000000000000000000000000000000000000000000640100000000620001eb810204565b620001817f780e9d6300000000000000000000000000000000000000000000000000000000640100000000620001eb810204565b81516200019690600990602085019062000258565b508051620001ac90600a90602084019062000258565b50620001e17f5b5e139f00000000000000000000000000000000000000000000000000000000640100000000620001eb810204565b50505050620002fd565b7fffffffff0000000000000000000000000000000000000000000000000000000080821614156200021b57600080fd5b7fffffffff00000000000000000000000000000000000000000000000000000000166000908152602081905260409020805460ff19166001179055565b828054600181600116156101000203166002900490600052602060002090601f016020900481019282601f106200029b57805160ff1916838001178555620002cb565b82800160010185558215620002cb579182015b82811115620002cb578251825591602001919060010190620002ae565b50620002d9929150620002dd565b5090565b620002fa91905b80821115620002d95760008155600101620002e4565b90565b612e38806200030d6000396000f3006080604052600436106102195763ffffffff7c010000000000000000000000000000000000000000000000000000000060003504166301ffc9a7811461021e57806306fdde031461026c578063081812fc146102f6578063095ea7b31461033757806313af40351461036a57806318160ddd146103985780631c79b4fc146103bf57806322835acc146103d757806323b872dd146103ef57806329cc044d146104265780632e1a7d4d1461043e5780632f745c591461045657806342842e0e1461048757806344cf661f146104be5780634501efbe146104d357806349f2553a146104ff5780634e2e470e146105585780634f6ccce7146105705780635adadef7146105885780636352211e146105b657806365063805146105ce5780636a3dc446146105f957806370a0823114610649578063959499b61461067757806395d89b411461068c578063a22cb465146106a1578063a3bbe569146106d4578063b2bdfa7b1461072a578063b88d4fde1461073f578063b9186d7d146107bb578063c2b6fb61146107d3578063c87b56dd146107f2578063d13b89411461080a578063d2834a9b1461081f578063ddf3d15f14610837578063de4b32621461084f578063de64a76514610867578063e121ba7c14610895578063e566f2b2146108a0578063e58de971146108b8578063e985e9c5146108d3578063f071810014610907578063f9e0edae146109b5578063fe776dd0146109ca575b600080fd5b34801561022a57600080fd5b506102587fffffffff0000000000000000000000000000000000000000000000000000000060043516610a1f565b604080519115158252519081900360200190f35b34801561027857600080fd5b50610281610a5a565b6040805160208082528351818301528351919283929083019185019080838360005b838110156102bb5781810151838201526020016102a3565b50505050905090810190601f1680156102e85780820380516001836020036101000a031916815260200191505b509250505060405180910390f35b34801561030257600080fd5b5061030e600435610af1565b6040805173ffffffffffffffffffffffffffffffffffffffff9092168252519081900360200190f35b34801561034357600080fd5b5061036873ffffffffffffffffffffffffffffffffffffffff60043516602435610b30565b005b34801561037657600080fd5b5061036873ffffffffffffffffffffffffffffffffffffffff60043516610c18565b3480156103a457600080fd5b506103ad610c91565b60408051918252519081900360200190f35b3480156103cb57600080fd5b506103ad600435610c97565b3480156103e357600080fd5b506103ad600435610ccb565b3480156103fb57600080fd5b5061036873ffffffffffffffffffffffffffffffffffffffff60043581169060243516604435610cf9565b34801561043257600080fd5b506103ad600435610dae565b34801561044a57600080fd5b50610368600435610ddc565b34801561046257600080fd5b506103ad73ffffffffffffffffffffffffffffffffffffffff60043516602435610e38565b34801561049357600080fd5b5061036873ffffffffffffffffffffffffffffffffffffffff60043581169060243516604435610e92565b3480156104ca57600080fd5b506103ad610eb3565b3480156104df57600080fd5b506104e8610eb9565b6040805161ffff9092168252519081900360200190f35b34801561050b57600080fd5b506040805160206004803580820135601f8101849004840285018401909552848452610368943694929360249392840191908190840183828082843750949750610ec89650505050505050565b34801561056457600080fd5b506104e8600435610f06565b34801561057c57600080fd5b506103ad600435610f3e565b34801561059457600080fd5b5061036873ffffffffffffffffffffffffffffffffffffffff60043516610f73565b3480156105c257600080fd5b5061030e600435610ff8565b3480156105da57600080fd5b506105e3611033565b6040805160ff9092168252519081900360200190f35b34801561060557600080fd5b5061061160043561103c565b6040518082608080838360005b8381101561063657818101518382015260200161061e565b5050505090500191505060405180910390f35b34801561065557600080fd5b506103ad73ffffffffffffffffffffffffffffffffffffffff6004351661108b565b34801561068357600080fd5b506103686110d8565b34801561069857600080fd5b50610281611149565b3480156106ad57600080fd5b5061036873ffffffffffffffffffffffffffffffffffffffff6004351660243515156111aa565b3480156106e057600080fd5b506106ec600435611266565b6040805194855273ffffffffffffffffffffffffffffffffffffffff909316602085015261ffff909116838301526060830152519081900360800190f35b34801561073657600080fd5b5061030e6112c9565b34801561074b57600080fd5b50604080516020601f6064356004818101359283018490048402850184019095528184526103689473ffffffffffffffffffffffffffffffffffffffff81358116956024803590921695604435953695608494019181908401838280828437509497506112ec9650505050505050565b3480156107c757600080fd5b506103ad600435611314565b3480156107df57600080fd5b5061036860043561ffff60243516611369565b3480156107fe57600080fd5b5061028160043561141d565b34801561081657600080fd5b506103ad61150f565b34801561082b57600080fd5b506103ad600435611515565b34801561084357600080fd5b506103ad600435611543565b34801561085b57600080fd5b50610368600435611575565b34801561087357600080fd5b506103ad73ffffffffffffffffffffffffffffffffffffffff600435166115a5565b6103686004356115b7565b3480156108ac57600080fd5b506104e8600435611793565b3480156108c457600080fd5b5061036860ff600435166117c9565b3480156108df57600080fd5b5061025873ffffffffffffffffffffffffffffffffffffffff60043581169060243516611828565b34801561091357600080fd5b5061091c611863565b604051808060200180602001838103835285818151815260200191508051906020019060200280838360005b83811015610960578181015183820152602001610948565b50505050905001838103825284818151815260200191508051906020019060200280838360005b8381101561099f578181015183820152602001610987565b5050505090500194505050505060405180910390f35b3480156109c157600080fd5b50610281611965565b3480156109d657600080fd5b506109e26004356119f3565b604080517dffffffffffffffffffffffffffffffffffffffffffffffffffffffffffff909316835261ffff90911660208301528051918290030190f35b7fffffffff00000000000000000000000000000000000000000000000000000000811660009081526020819052604090205460ff165b919050565b60098054604080516020601f6002600019610100600188161502019095169490940493840181900481028201810190925282815260609390929091830182828015610ae65780601f10610abb57610100808354040283529160200191610ae6565b820191906000526020600020905b815481529060010190602001808311610ac957829003601f168201915b505050505090505b90565b6000610afc82611a4d565b1515610b0757600080fd5b5060009081526002602052604090205473ffffffffffffffffffffffffffffffffffffffff1690565b6000610b3b82610ff8565b905073ffffffffffffffffffffffffffffffffffffffff8381169082161415610b6357600080fd5b3373ffffffffffffffffffffffffffffffffffffffff82161480610b8c5750610b8c8133611828565b1515610b9757600080fd5b60008281526002602052604080822080547fffffffffffffffffffffffff00000000000000000000000000000000000000001673ffffffffffffffffffffffffffffffffffffffff87811691821790925591518593918516917f8c5be1e5ebec7d5bd14f71427d1e84f3dd0314c0f7b2291e5b200ac8c7c3b92591a4505050565b600d546301000000900473ffffffffffffffffffffffffffffffffffffffff163314610c4357600080fd5b600d805473ffffffffffffffffffffffffffffffffffffffff9092166301000000027fffffffffffffffffff0000000000000000000000000000000000000000ffffff909216919091179055565b60075490565b6000610cc58260067f3233343536373839434647484a4d505152565758000000000000000000000000611a77565b92915050565b6000610cc58260067f5857565251504d4a484746433938373635343332000000000000000000000000611a77565b610d033382611edc565b1515610d0e57600080fd5b73ffffffffffffffffffffffffffffffffffffffff82161515610d3057600080fd5b610d3a8382611f71565b610d448382612012565b610d4e828261215a565b808273ffffffffffffffffffffffffffffffffffffffff168473ffffffffffffffffffffffffffffffffffffffff167fddf252ad1be2c89b69c2b068fc378daa952ba7f163c4a11628f55a4df523b3ef60405160405180910390a4505050565b6000610cc58260077f5857565251504d4a484746433938373635343332000000000000000000000000611a77565b600d546301000000900473ffffffffffffffffffffffffffffffffffffffff163314610e0757600080fd5b604051339082156108fc029083906000818181858888f19350505050158015610e34573d6000803e3d6000fd5b5050565b6000610e438361108b565b8210610e4e57600080fd5b73ffffffffffffffffffffffffffffffffffffffff83166000908152600560205260409020805483908110610e7f57fe5b9060005260206000200154905092915050565b610eae83838360206040519081016040528060008152506112ec565b505050565b600c5481565b600d54610100900461ffff1681565b600d546301000000900473ffffffffffffffffffffffffffffffffffffffff163314610ef357600080fd5b8051610e3490600e906020840190612cf1565b6000908152600f60205260409020547e01000000000000000000000000000000000000000000000000000000000000900461ffff1690565b6000610f48610c91565b8210610f5357600080fd5b6007805483908110610f6157fe5b90600052602060002001549050919050565b33600090815260106020526040902054801515610f8f57610e34565b33600090815260106020526040812055601154610fb2908263ffffffff6121b016565b60115560405173ffffffffffffffffffffffffffffffffffffffff83169082156108fc029083906000818181858888f19350505050158015610eae573d6000803e3d6000fd5b60008181526001602052604081205473ffffffffffffffffffffffffffffffffffffffff1680151561102957600080fd5b8091505b50919050565b600d5460ff1681565b611044612d6f565b60806040519081016040528061105984610c97565b815260200161106784611515565b815260200161107584610ccb565b815260200161108384610dae565b905292915050565b600073ffffffffffffffffffffffffffffffffffffffff821615156110af57600080fd5b5073ffffffffffffffffffffffffffffffffffffffff1660009081526003602052604090205490565b600d546301000000900473ffffffffffffffffffffffffffffffffffffffff16331461110357600080fd5b60115433906108fc9061111e9030319063ffffffff6121b016565b6040518115909202916000818181858888f19350505050158015611146573d6000803e3d6000fd5b50565b600a8054604080516020601f6002600019610100600188161502019095169490940493840181900481028201810190925282815260609390929091830182828015610ae65780601f10610abb57610100808354040283529160200191610ae6565b73ffffffffffffffffffffffffffffffffffffffff82163314156111cd57600080fd5b33600081815260046020908152604080832073ffffffffffffffffffffffffffffffffffffffff87168085529083529281902080547fffffffffffffffffffffffffffffffffffffffffffffffffffffffffffffff0016861515908117909155815190815290519293927f17307eab39ab6107e8899845ad3d59bd9653f200f220920489ca2b5937696c31929181900390910190a35050565b600080600080600061127786611314565b905061128286611a4d565b156112b05761129086611543565b61129987610ff8565b6112a288611793565b8394509450945094506112c1565b600c54945060009350600a92509050805b509193509193565b600d546301000000900473ffffffffffffffffffffffffffffffffffffffff1681565b6112f7848484610cf9565b611303848484846121c7565b151561130e57600080fd5b50505050565b600061131f82611a4d565b156113615761135a600a61134e61133585611793565b61ffff1661134286611543565b9063ffffffff61236616565b9063ffffffff61239b16565b9050610a55565b5050600c5490565b8161137381610ff8565b73ffffffffffffffffffffffffffffffffffffffff16331461139457600080fd5b60018261ffff16101580156113af57506103e88261ffff1611155b15156113ba57600080fd5b506000918252600f6020526040909120805461ffff9092167e01000000000000000000000000000000000000000000000000000000000000027dffffffffffffffffffffffffffffffffffffffffffffffffffffffffffff909216919091179055565b606061142882611a4d565b151561143357600080fd5b600e805460408051602060026001851615610100026000190190941693909304601f8101849004840282018401909252818152610cc5936114d693919290918301828280156114c35780601f10611498576101008083540402835291602001916114c3565b820191906000526020600020905b8154815290600101906020018083116114a657829003601f168201915b50505050506114d1856123be565b61256e565b60408051808201909152600581527f2e6a736f6e000000000000000000000000000000000000000000000000000000602082015261256e565b60115481565b6000610cc58260077f3233343536373839434647484a4d505152565758000000000000000000000000611a77565b6000908152600f60205260409020547dffffffffffffffffffffffffffffffffffffffffffffffffffffffffffff1690565b600d546301000000900473ffffffffffffffffffffffffffffffffffffffff1633146115a057600080fd5b600c55565b60106020526000908152604090205481565b6000806000806115c5612d6f565b6000806115d188611314565b9650348711156115e057600080fd5b6040805180820182527dffffffffffffffffffffffffffffffffffffffffffffffffffffffffffff3481168252600060208084018281528d8352600f90915293902091518254935161ffff167e01000000000000000000000000000000000000000000000000000000000000029082167fffff000000000000000000000000000000000000000000000000000000000000909416939093171691909117905561168888611a4d565b151561169d57611698338961272d565b611789565b6116a688610ff8565b955073ffffffffffffffffffffffffffffffffffffffff86163314156116cb57600080fd5b6116d5868961277c565b6116df338961272d565b600d546116f690349060ff1663ffffffff61239b16565b9450600193506117058861103c565b9250600091505b60048210156117605782826004811061172157fe5b6020020151905061173181611a4d565b151561173c57611755565b61174e61174882610ff8565b866127c4565b6001909301925b60019091019061170c565b61178986611784611777888863ffffffff61236616565b349063ffffffff6121b016565b6127c4565b5050505050505050565b60008061179f83610f06565b905060008161ffff1611156117b65780915061102d565b5050600d54610100900461ffff16919050565b600d546301000000900473ffffffffffffffffffffffffffffffffffffffff1633146117f457600080fd5b600d80547fffffffffffffffffffffffffffffffffffffffffffffffffffffffffffffff001660ff92909216919091179055565b73ffffffffffffffffffffffffffffffffffffffff918216600090815260046020908152604080832093909416825291909152205460ff1690565b60608060006060806000611875610c91565b9350836040519080825280602002602001820160405280156118a1578160200160208202803883390190505b509250836040519080825280602002602001820160405280156118ce578160200160208202803883390190505b509150600090505b8381101561195a576118e781610f3e565b83828151811015156118f557fe5b6020908102909101015282516119209084908390811061191157fe5b90602001906020020151610ff8565b828281518110151561192e57fe5b73ffffffffffffffffffffffffffffffffffffffff9092166020928302909101909101526001016118d6565b509094909350915050565b600e805460408051602060026001851615610100026000190190941693909304601f810184900484028201840190925281815292918301828280156119eb5780601f106119c0576101008083540402835291602001916119eb565b820191906000526020600020905b8154815290600101906020018083116119ce57829003601f168201915b505050505081565b600f602052600090815260409020547dffffffffffffffffffffffffffffffffffffffffffffffffffffffffffff8116907e01000000000000000000000000000000000000000000000000000000000000900461ffff1682565b60009081526001602052604090205473ffffffffffffffffffffffffffffffffffffffff16151590565b600080600080600080871215611a8f57879450611ed1565b611aca886017890160208110611aa157fe5b1a7f01000000000000000000000000000000000000000000000000000000000000000287612878565b9350611ad7888886612974565b92508560001a7f0100000000000000000000000000000000000000000000000000000000000000027effffffffffffffffffffffffffffffffffffffffffffffffffffffffffffff1916847effffffffffffffffffffffffffffffffffffffffffffffffffffffffffffff19161415611ecd577ffffffffffffffffffffffffffffffffffffffffffffffffffffffffffffffffe87019150826015880160208110611b7e57fe5b1a7f01000000000000000000000000000000000000000000000000000000000000000290508160011415611d37577fffffffffffffffffffffffffffffffffffffffff00000000000000000000000086167f3233343536373839434647484a4d505152565758000000000000000000000000148015611c3e57507f56000000000000000000000000000000000000000000000000000000000000007fff000000000000000000000000000000000000000000000000000000000000008216145b15611c7557611c6e83837f3200000000000000000000000000000000000000000000000000000000000000612974565b9450611ed1565b7fffffffffffffffffffffffffffffffffffffffff00000000000000000000000086167f5857565251504d4a484746433938373635343332000000000000000000000000148015611d0757507f32000000000000000000000000000000000000000000000000000000000000007fff000000000000000000000000000000000000000000000000000000000000008216145b15611d3757611c6e83837f5600000000000000000000000000000000000000000000000000000000000000612974565b811515611ec2577fffffffffffffffffffffffffffffffffffffffff00000000000000000000000086167f3233343536373839434647484a4d505152565758000000000000000000000000148015611dd057507f43000000000000000000000000000000000000000000000000000000000000007fff000000000000000000000000000000000000000000000000000000000000008216145b15611e0057611c6e83837f3200000000000000000000000000000000000000000000000000000000000000612974565b7fffffffffffffffffffffffffffffffffffffffff00000000000000000000000086167f5857565251504d4a484746433938373635343332000000000000000000000000148015611e9257507f32000000000000000000000000000000000000000000000000000000000000007fff000000000000000000000000000000000000000000000000000000000000008216145b15611ec257611c6e83837f4300000000000000000000000000000000000000000000000000000000000000612974565b611c6e838388611a77565b8294505b505050509392505050565b600080611ee883610ff8565b90508073ffffffffffffffffffffffffffffffffffffffff168473ffffffffffffffffffffffffffffffffffffffff161480611f5757508373ffffffffffffffffffffffffffffffffffffffff16611f3f84610af1565b73ffffffffffffffffffffffffffffffffffffffff16145b80611f675750611f678185611828565b91505b5092915050565b8173ffffffffffffffffffffffffffffffffffffffff16611f9182610ff8565b73ffffffffffffffffffffffffffffffffffffffff1614611fb157600080fd5b60008181526002602052604090205473ffffffffffffffffffffffffffffffffffffffff1615610e3457600090815260026020526040902080547fffffffffffffffffffffffff000000000000000000000000000000000000000016905550565b600080600061202185856129b2565b60008481526006602090815260408083205473ffffffffffffffffffffffffffffffffffffffff8916845260059092529091205490935061206990600163ffffffff6121b016565b73ffffffffffffffffffffffffffffffffffffffff861660009081526005602052604090208054919350908390811061209e57fe5b9060005260206000200154905080600560008773ffffffffffffffffffffffffffffffffffffffff1673ffffffffffffffffffffffffffffffffffffffff168152602001908152602001600020848154811015156120f857fe5b600091825260208083209091019290925573ffffffffffffffffffffffffffffffffffffffff8716815260059091526040902080549061213c906000198301612d8e565b50600093845260066020526040808520859055908452909220555050565b60006121668383612a87565b5073ffffffffffffffffffffffffffffffffffffffff9091166000908152600560209081526040808320805460018101825590845282842081018590559383526006909152902055565b600080838311156121c057600080fd5b5050900390565b6000806121e98573ffffffffffffffffffffffffffffffffffffffff16612b49565b15156121f8576001915061235d565b6040517f150b7a02000000000000000000000000000000000000000000000000000000008152336004820181815273ffffffffffffffffffffffffffffffffffffffff898116602485015260448401889052608060648501908152875160848601528751918a169463150b7a0294938c938b938b93909160a490910190602085019080838360005b83811015612298578181015183820152602001612280565b50505050905090810190601f1680156122c55780820380516001836020036101000a031916815260200191505b5095505050505050602060405180830381600087803b1580156122e757600080fd5b505af11580156122fb573d6000803e3d6000fd5b505050506040513d602081101561231157600080fd5b50517fffffffff0000000000000000000000000000000000000000000000000000000081167f150b7a020000000000000000000000000000000000000000000000000000000014925090505b50949350505050565b6000808315156123795760009150611f6a565b5082820282848281151561238957fe5b041461239457600080fd5b9392505050565b6000808083116123aa57600080fd5b82848115156123b557fe5b04949350505050565b604080516020808252818301909252606091839183916000918291829185918082016104008038833901905050945060009350600092505b6020831015612483576008830260020a860291507fff000000000000000000000000000000000000000000000000000000000000008216156124785781858581518110151561244157fe5b9060200101907effffffffffffffffffffffffffffffffffffffffffffffffffffffffffffff1916908160001a9053506001909301925b6001909201916123f6565b836040519080825280601f01601f1916602001820160405280156124b1578160200160208202803883390190505b509050600092505b838310156125635784838151811015156124cf57fe5b9060200101517f010000000000000000000000000000000000000000000000000000000000000090047f010000000000000000000000000000000000000000000000000000000000000002818481518110151561252857fe5b9060200101907effffffffffffffffffffffffffffffffffffffffffffffffffffffffffffff1916908160001a9053506001909201916124b9565b979650505050505050565b606080606080606060008088955087945084518651016040519080825280601f01601f1916602001820160405280156125b1578160200160208202803883390190505b50935083925060009150600090505b855181101561266e5785818151811015156125d757fe5b9060200101517f010000000000000000000000000000000000000000000000000000000000000090047f010000000000000000000000000000000000000000000000000000000000000002838380600101945081518110151561263657fe5b9060200101907effffffffffffffffffffffffffffffffffffffffffffffffffffffffffffff1916908160001a9053506001016125c0565b5060005b845181101561272057848181518110151561268957fe5b9060200101517f010000000000000000000000000000000000000000000000000000000000000090047f01000000000000000000000000000000000000000000000000000000000000000283838060010194508151811015156126e857fe5b9060200101907effffffffffffffffffffffffffffffffffffffffffffffffffffffffffffff1916908160001a905350600101612672565b5090979650505050505050565b6127378282612b51565b600780546000838152600860205260408120829055600182018355919091527fa66cc928b5edb82af9bd49922954155ab7b0942694bea4ce44661d9a8736c688015550565b6127868282612bc6565b6000818152600b60205260409020546002600019610100600184161502019091160415610e34576000818152600b60205260408120610e3491612db2565b60405160009073ffffffffffffffffffffffffffffffffffffffff84169083156108fc0290849084818181858888f193505050509050801515610eae5773ffffffffffffffffffffffffffffffffffffffff8316600090815260106020526040902054612837908363ffffffff612c8216565b73ffffffffffffffffffffffffffffffffffffffff8416600090815260106020526040902055601154612870908363ffffffff612c8216565b601155505050565b6000805b6014811015611f6a5782816014811061289157fe5b1a7f0100000000000000000000000000000000000000000000000000000000000000027effffffffffffffffffffffffffffffffffffffffffffffffffffffffffffff1916847effffffffffffffffffffffffffffffffffffffffffffffffffffffffffffff1916141561296c578060131461293e5782600182016014811061291657fe5b1a7f010000000000000000000000000000000000000000000000000000000000000002612965565b8260001a7f0100000000000000000000000000000000000000000000000000000000000000025b9150611f6a565b60010161287c565b60ff600892830390920260020a91820219929092167f0100000000000000000000000000000000000000000000000000000000000000909204021790565b8173ffffffffffffffffffffffffffffffffffffffff166129d282610ff8565b73ffffffffffffffffffffffffffffffffffffffff16146129f257600080fd5b73ffffffffffffffffffffffffffffffffffffffff8216600090815260036020526040902054612a2990600163ffffffff6121b016565b73ffffffffffffffffffffffffffffffffffffffff90921660009081526003602090815260408083209490945591815260019091522080547fffffffffffffffffffffffff0000000000000000000000000000000000000000169055565b60008181526001602052604090205473ffffffffffffffffffffffffffffffffffffffff1615612ab657600080fd5b600081815260016020818152604080842080547fffffffffffffffffffffffff00000000000000000000000000000000000000001673ffffffffffffffffffffffffffffffffffffffff88169081179091558452600390915290912054612b1c91612c82565b73ffffffffffffffffffffffffffffffffffffffff90921660009081526003602052604090209190915550565b6000903b1190565b73ffffffffffffffffffffffffffffffffffffffff82161515612b7357600080fd5b612b7d828261215a565b604051819073ffffffffffffffffffffffffffffffffffffffff8416906000907fddf252ad1be2c89b69c2b068fc378daa952ba7f163c4a11628f55a4df523b3ef908290a45050565b6000806000612bd58585612c94565b600084815260086020526040902054600754909350612bfb90600163ffffffff6121b016565b9150600782815481101515612c0c57fe5b9060005260206000200154905080600784815481101515612c2957fe5b60009182526020822001919091556007805484908110612c4557fe5b6000918252602090912001556007805490612c64906000198301612d8e565b50600093845260086020526040808520859055908452909220555050565b60008282018381101561239457600080fd5b612c9e8282611f71565b612ca88282612012565b604051819060009073ffffffffffffffffffffffffffffffffffffffff8516907fddf252ad1be2c89b69c2b068fc378daa952ba7f163c4a11628f55a4df523b3ef908390a45050565b828054600181600116156101000203166002900490600052602060002090601f016020900481019282601f10612d3257805160ff1916838001178555612d5f565b82800160010185558215612d5f579182015b82811115612d5f578251825591602001919060010190612d44565b50612d6b929150612df2565b5090565b6080604051908101604052806004906020820280388339509192915050565b815481835581811115610eae57600083815260209020610eae918101908301612df2565b50805460018160011615610100020316600290046000825580601f10612dd85750611146565b601f01602090049060005260206000209081019061114691905b610aee91905b80821115612d6b5760008155600101612df85600a165627a7a7230582004634b7278889d13c95e1a21bf89bf2c92f54ff1a10419167995cf7532f8e9d70029",
  "source": "pragma solidity ^0.4.24;\n\n/* The latest stable Truffle is Truffle 4, which also uses Solidity 4. The highest OpenZeppelin that is compatible with Solidity 4 is 2.0.0. */\n\nimport \"openzeppelin-solidity/contracts/token/ERC721/ERC721Full.sol\";\n\ncontract Landemic is ERC721Full(\"Landemic\",\"LAND\") {\n\n    uint256 public _basePrice = 810000000000000; // $0.25 ETH/USD as of 4/6/2019\n    uint8 public _bountyDivisor = 20; // 5% to each player\n    uint16 public _defaultMultiple = 100; // using 1 decimal point divisibility, max 1000\n    address public _owner = msg.sender;\n    string public _baseURL = \"https://landemic.io/\";\n\n    struct Price {\n        uint240 lastPrice;\n        uint16 multiple;\n    }\n    mapping(uint256 => Price) public _prices;\n\n    // When recepient cannot receive the bounty,\n    // it is stored here and can be pulled manually\n    mapping(address => uint256) public failedPayouts;\n    uint256 public failedPayoutsSum;\n\n    /* Admin */\n\n    modifier onlyContractOwner() {\n        require(msg.sender == _owner);\n        _;\n    }\n\n    function _lastPrice(uint256 tokenId) public view returns (uint256) {\n        return uint256(_prices[tokenId].lastPrice);\n    }\n\n    function _multiple(uint256 tokenId) public view returns (uint16) {\n        return _prices[tokenId].multiple;\n    }\n\n    function setBasePrice(uint256 basePrice) onlyContractOwner public {\n        _basePrice = basePrice;\n    }\n\n    function setBountyDivisor(uint8 bountyDivisor) onlyContractOwner public {\n        _bountyDivisor = bountyDivisor;\n    }\n\n    function setBaseURL(string baseURL) public onlyContractOwner {\n        _baseURL = baseURL;\n    }\n\n    function setOwner(address owner) onlyContractOwner public {\n        _owner = owner;\n    }\n\n    // Allows the owner to withdraw profits and failed payouts.\n    // Owner should check failedPayoutsSum to not withdraw extra.\n    function withdraw(uint256 amount) onlyContractOwner public {\n        msg.sender.transfer(amount);\n    }\n\n    function withdrawProfit() onlyContractOwner public {\n        msg.sender.transfer(address(this).balance.sub(failedPayoutsSum));\n    }\n\n    /* Temp Functions Until Server-Side Component */\n\n    function getAllOwned() public view returns (uint256[], address[]) {\n\n        uint totalOwned = totalSupply();\n\n        uint256[] memory ownedUint256 = new uint256[](totalOwned);\n        address[] memory ownersAddress = new address[](totalOwned);\n\n        for (uint i = 0; i < totalOwned; i++) {\n            ownedUint256[i] = tokenByIndex(i);\n            ownersAddress[i] = ownerOf(ownedUint256[i]);\n        }\n\n        return (ownedUint256, ownersAddress);\n\n    }\n\n    function metadataForToken(uint256 tokenId) public view returns (uint256, address, uint16, uint256) {\n        uint256 price = priceOf(tokenId);\n\n        if (_exists(tokenId)) {\n            return (_lastPrice(tokenId), ownerOf(tokenId), multipleOf(tokenId), price);\n        }\n        return (_basePrice, 0, 10, price);\n    }\n\n    function priceOf(uint256 tokenId) public view returns (uint256) {\n        if (_exists(tokenId)) {\n            return _lastPrice(tokenId).mul(uint256(multipleOf(tokenId))).div(10);\n        }\n        return _basePrice;\n    }\n\n    function multipleOf(uint256 tokenId) public view returns (uint16) {\n        uint16 multiple = _multiple(tokenId);\n        if (multiple > 0) {\n            return multiple;\n        }\n        return _defaultMultiple;\n    }\n\n    /* Adjust metadata */\n\n    modifier onlyTokenOwner(uint256 tokenId) {\n        require(msg.sender == ownerOf(tokenId));\n        _;\n    }\n\n    function setMultiple(uint256 tokenId, uint16 multiple) public onlyTokenOwner(tokenId) {\n        require(multiple >= 1 && multiple <= 1000);\n        _prices[tokenId].multiple = multiple;\n    }\n\n    /* Buy & Sell */\n\n    // TODO:\n    // function grabCodes(uint256[] tokens) public payable {\n    //     for (uint i = 0; i < tokens.length; i++) {\n    //         _mint(msg.sender, tokens[i]);\n    //     }\n    // }\n\n\n\n    function _pushOrDelayBounty(address to, uint256 amount) internal {\n        bool success = to.send(amount);\n        if (!success) {\n            failedPayouts[to] = failedPayouts[to].add(amount);\n            failedPayoutsSum = failedPayoutsSum.add(amount);\n        }\n    }\n\n    function grabCode(uint256 tokenId) public payable {\n        // uint256 tokenId = uint256(stringToBytes32(code));\n\n        uint256 price = priceOf(tokenId);  // _lastPrice * 0.1  <=  price  <=  _lastPrice * 10\n        require(msg.value >= price);\n\n        _prices[tokenId] = Price(uint240(msg.value), uint16(0));\n\n        if (!_exists(tokenId)) {\n            _mint(msg.sender, tokenId);\n            return;\n        }\n\n        address owner = ownerOf(tokenId);\n        require(owner != msg.sender);\n\n        _burn(owner, tokenId);\n        _mint(msg.sender, tokenId);\n\n        uint256 bounty = msg.value.div(_bountyDivisor);  // 5%\n        uint256 bountiesCount = 1; // Landemic.\n        uint256[4] memory neighbors = neighborsOfToken(tokenId);\n        for (uint i = 0; i < 4; i++) {\n            uint256 neighbor = neighbors[i];\n            if (!_exists(neighbor)) {\n                continue;\n            }\n            _pushOrDelayBounty(ownerOf(neighbor), bounty);\n            bountiesCount++;\n        }\n\n        _pushOrDelayBounty(owner, msg.value.sub(bounty.mul(bountiesCount)));  // 75%\n    }\n\n    function pullBounty(address to) public {\n        uint256 bounty = failedPayouts[msg.sender];\n        if (bounty == 0) {\n            return;\n        }\n        failedPayouts[msg.sender] = 0;\n        failedPayoutsSum = failedPayoutsSum.sub(bounty);        \n        to.transfer(bounty);\n    }\n\n\n    /* ERC721Metadata overrides */\n\n    /**\n    * @dev Returns an URI for a given token ID\n    * @dev Throws if the token ID does not exist. May return an empty string.\n    * @param _tokenId uint256 ID of the token to query\n    */\n    function tokenURI(uint256 _tokenId) external view returns (string) {\n        require(_exists(_tokenId));\n        return strConcat(strConcat(_baseURL, uint256ToString(_tokenId)),\".json\");\n    }\n\n    /* Utilities */\n\n    // https://ethereum.stackexchange.com/a/9152/3847\n    function uint256ToString(uint256 y) private pure returns (string) {\n        bytes32 x = bytes32(y);\n        bytes memory bytesString = new bytes(32);\n        uint charCount = 0;\n        for (uint j = 0; j < 32; j++) {\n            byte char = byte(bytes32(uint(x) * 2 ** (8 * j)));\n            if (char != 0) {\n                bytesString[charCount] = char;\n                charCount++;\n            }\n        }\n        bytes memory bytesStringTrimmed = new bytes(charCount);\n        for (j = 0; j < charCount; j++) {\n            bytesStringTrimmed[j] = bytesString[j];\n        }\n        return string(bytesStringTrimmed);\n    }\n\n    function stringToBytes32(string memory source) private pure returns (bytes32 result) {\n        bytes memory testEmptyStringTest = bytes(source);\n        if (testEmptyStringTest.length == 0) {\n            return 0x0;\n        }\n\n        assembly {\n            result := mload(add(source, 32))\n        }\n    }\n\n    // https://ethereum.stackexchange.com/questions/729/how-to-concatenate-strings-in-solidity\n    function strConcat(string _a, string _b) private pure returns (string) {\n        bytes memory bytes_a = bytes(_a);\n        bytes memory bytes_b = bytes(_b);\n        string memory ab = new string (bytes_a.length + bytes_b.length);\n        bytes memory bytes_ab = bytes(ab);\n        uint k = 0;\n        for (uint i = 0; i < bytes_a.length; i++) bytes_ab[k++] = bytes_a[i];\n        for (i = 0; i < bytes_b.length; i++) bytes_ab[k++] = bytes_b[i];\n        return string(bytes_ab);\n    }\n\n    // TODO: This should be a separate library: OLC.sol\n\n    bytes20 constant DIGITS = bytes20('23456789CFGHJMPQRVWX');\n    bytes20 constant STIGID = bytes20('XWVRQPMJHGFC98765432');\n\n    function nextChar(byte c, bytes20 digits) private pure returns (byte) {\n        for (uint i = 0; i < 20; i++)\n            if (c == digits[i])\n                return (i == 19) ? digits[0] : digits[i+1];\n\n    }\n\n    function replaceChar(uint256 tokenId, uint pos, byte c) private pure returns (uint256) {\n\n        uint shift = (8 - pos) * 8;\n        uint256 insert = uint256(c) << shift;\n        uint256 mask = ~(uint256(0xff) << shift);\n\n        return tokenId & mask | insert;\n    }\n\n    function incrementChar(uint256 tokenId, int pos, bytes20 digits) private pure returns (uint256) {\n\n        if (pos < 0)\n            return tokenId;\n\n        byte c = nextChar(bytes32(tokenId)[23 + uint(pos)], digits);\n        uint256 updated = replaceChar(tokenId, uint(pos), c);\n        if (c == digits[0]) {\n            int nextPos = pos - 2;\n            byte nextPosChar = bytes32(updated)[23 + uint(nextPos)];\n            // Longitude has only 18 slices.\n            if (nextPos == 1) {\n                if (digits == DIGITS && nextPosChar == 'V') {\n                    return replaceChar(updated, uint(nextPos), '2');\n                }\n                if (digits == STIGID && nextPosChar == '2') {\n                    return replaceChar(updated, uint(nextPos), 'V');\n                }\n            }\n            // Latitude has only 9 slices.\n            if (nextPos == 0) {\n                if (digits == DIGITS && nextPosChar == 'C') {\n                    return replaceChar(updated, uint(nextPos), '2');\n                }\n                if (digits == STIGID && nextPosChar == '2') {\n                    return replaceChar(updated, uint(nextPos), 'C');\n                }\n            }\n            return incrementChar(updated, nextPos, digits);\n        }\n        return updated;\n    }\n\n    function northOfToken(uint256 tokenId) public pure returns (uint256) {\n        return incrementChar(tokenId, 6, DIGITS);\n    }\n\n    function southOfToken(uint256 tokenId) public pure returns (uint256) {\n        return incrementChar(tokenId, 6, STIGID);\n    }\n\n    function eastOfToken(uint256 tokenId) public pure returns (uint256) {\n        return incrementChar(tokenId, 7, DIGITS);\n    }\n\n    function westOfToken(uint256 tokenId) public pure returns (uint256) {\n        return incrementChar(tokenId, 7, STIGID);\n    }\n\n    function neighborsOfToken(uint256 tokenId) public pure returns (uint256[4]) {\n        return [\n            northOfToken(tokenId),\n            eastOfToken(tokenId),\n            southOfToken(tokenId),\n            westOfToken(tokenId)\n        ];\n    }\n\n}\n",
  "sourcePath": "/Users/phil/Transferbox/Code/landemic/landemic/contracts/Landemic.sol",
  "compiler": {
    "name": "solc",
    "version": "0.4.25+commit.59dbf8f1.Emscripten.clang"
  },
  "schemaVersion": "2.0.2",
  "updatedAt": "2019-06-24T23:26:18.879Z"
}