{
  "contractName": "Landemic",
  "abi": [
    {
      "constant": true,
      "inputs": [
        {
          "name": "interfaceId",
          "type": "bytes4"
        }
      ],
      "name": "supportsInterface",
      "outputs": [
        {
          "name": "",
          "type": "bool"
        }
      ],
      "payable": false,
      "stateMutability": "view",
      "type": "function"
    },
    {
      "constant": true,
      "inputs": [],
      "name": "name",
      "outputs": [
        {
          "name": "",
          "type": "string"
        }
      ],
      "payable": false,
      "stateMutability": "view",
      "type": "function"
    },
    {
      "constant": true,
      "inputs": [
        {
          "name": "tokenId",
          "type": "uint256"
        }
      ],
      "name": "getApproved",
      "outputs": [
        {
          "name": "",
          "type": "address"
        }
      ],
      "payable": false,
      "stateMutability": "view",
      "type": "function"
    },
    {
      "constant": false,
      "inputs": [
        {
          "name": "to",
          "type": "address"
        },
        {
          "name": "tokenId",
          "type": "uint256"
        }
      ],
      "name": "approve",
      "outputs": [],
      "payable": false,
      "stateMutability": "nonpayable",
      "type": "function"
    },
    {
      "constant": true,
      "inputs": [],
      "name": "totalSupply",
      "outputs": [
        {
          "name": "",
          "type": "uint256"
        }
      ],
      "payable": false,
      "stateMutability": "view",
      "type": "function"
    },
    {
      "constant": false,
      "inputs": [
        {
          "name": "from",
          "type": "address"
        },
        {
          "name": "to",
          "type": "address"
        },
        {
          "name": "tokenId",
          "type": "uint256"
        }
      ],
      "name": "transferFrom",
      "outputs": [],
      "payable": false,
      "stateMutability": "nonpayable",
      "type": "function"
    },
    {
      "constant": true,
      "inputs": [],
      "name": "_production",
      "outputs": [
        {
          "name": "",
          "type": "bool"
        }
      ],
      "payable": false,
      "stateMutability": "view",
      "type": "function"
    },
    {
      "constant": true,
      "inputs": [
        {
          "name": "owner",
          "type": "address"
        },
        {
          "name": "index",
          "type": "uint256"
        }
      ],
      "name": "tokenOfOwnerByIndex",
      "outputs": [
        {
          "name": "",
          "type": "uint256"
        }
      ],
      "payable": false,
      "stateMutability": "view",
      "type": "function"
    },
    {
      "constant": false,
      "inputs": [
        {
          "name": "from",
          "type": "address"
        },
        {
          "name": "to",
          "type": "address"
        },
        {
          "name": "tokenId",
          "type": "uint256"
        }
      ],
      "name": "safeTransferFrom",
      "outputs": [],
      "payable": false,
      "stateMutability": "nonpayable",
      "type": "function"
    },
    {
      "constant": true,
      "inputs": [],
      "name": "_basePrice",
      "outputs": [
        {
          "name": "",
          "type": "uint256"
        }
      ],
      "payable": false,
      "stateMutability": "view",
      "type": "function"
    },
    {
      "constant": true,
      "inputs": [],
      "name": "_defaultMultiple",
      "outputs": [
        {
          "name": "",
          "type": "uint16"
        }
      ],
      "payable": false,
      "stateMutability": "view",
      "type": "function"
    },
    {
      "constant": true,
      "inputs": [
        {
          "name": "index",
          "type": "uint256"
        }
      ],
      "name": "tokenByIndex",
      "outputs": [
        {
          "name": "",
          "type": "uint256"
        }
      ],
      "payable": false,
      "stateMutability": "view",
      "type": "function"
    },
    {
      "constant": true,
      "inputs": [
        {
          "name": "tokenId",
          "type": "uint256"
        }
      ],
      "name": "ownerOf",
      "outputs": [
        {
          "name": "",
          "type": "address"
        }
      ],
      "payable": false,
      "stateMutability": "view",
      "type": "function"
    },
    {
      "constant": true,
      "inputs": [],
      "name": "_bountyDivisor",
      "outputs": [
        {
          "name": "",
          "type": "uint8"
        }
      ],
      "payable": false,
      "stateMutability": "view",
      "type": "function"
    },
    {
      "constant": true,
      "inputs": [
        {
          "name": "owner",
          "type": "address"
        }
      ],
      "name": "balanceOf",
      "outputs": [
        {
          "name": "",
          "type": "uint256"
        }
      ],
      "payable": false,
      "stateMutability": "view",
      "type": "function"
    },
    {
      "constant": true,
      "inputs": [],
      "name": "symbol",
      "outputs": [
        {
          "name": "",
          "type": "string"
        }
      ],
      "payable": false,
      "stateMutability": "view",
      "type": "function"
    },
    {
      "constant": false,
      "inputs": [
        {
          "name": "to",
          "type": "address"
        },
        {
          "name": "approved",
          "type": "bool"
        }
      ],
      "name": "setApprovalForAll",
      "outputs": [],
      "payable": false,
      "stateMutability": "nonpayable",
      "type": "function"
    },
    {
      "constant": true,
      "inputs": [],
      "name": "_owner",
      "outputs": [
        {
          "name": "",
          "type": "address"
        }
      ],
      "payable": false,
      "stateMutability": "view",
      "type": "function"
    },
    {
      "constant": false,
      "inputs": [
        {
          "name": "from",
          "type": "address"
        },
        {
          "name": "to",
          "type": "address"
        },
        {
          "name": "tokenId",
          "type": "uint256"
        },
        {
          "name": "_data",
          "type": "bytes"
        }
      ],
      "name": "safeTransferFrom",
      "outputs": [],
      "payable": false,
      "stateMutability": "nonpayable",
      "type": "function"
    },
    {
      "constant": true,
      "inputs": [],
      "name": "failedPayoutsSum",
      "outputs": [
        {
          "name": "",
          "type": "uint256"
        }
      ],
      "payable": false,
      "stateMutability": "view",
      "type": "function"
    },
    {
      "constant": true,
      "inputs": [
        {
          "name": "",
          "type": "address"
        }
      ],
      "name": "failedPayouts",
      "outputs": [
        {
          "name": "",
          "type": "uint256"
        }
      ],
      "payable": false,
      "stateMutability": "view",
      "type": "function"
    },
    {
      "constant": true,
      "inputs": [
        {
          "name": "owner",
          "type": "address"
        },
        {
          "name": "operator",
          "type": "address"
        }
      ],
      "name": "isApprovedForAll",
      "outputs": [
        {
          "name": "",
          "type": "bool"
        }
      ],
      "payable": false,
      "stateMutability": "view",
      "type": "function"
    },
    {
      "constant": true,
      "inputs": [],
      "name": "_baseURL",
      "outputs": [
        {
          "name": "",
          "type": "string"
        }
      ],
      "payable": false,
      "stateMutability": "view",
      "type": "function"
    },
    {
      "constant": true,
      "inputs": [
        {
          "name": "",
          "type": "uint256"
        }
      ],
      "name": "_prices",
      "outputs": [
        {
          "name": "lastPrice",
          "type": "uint240"
        },
        {
          "name": "multiple",
          "type": "uint16"
        }
      ],
      "payable": false,
      "stateMutability": "view",
      "type": "function"
    },
    {
      "anonymous": false,
      "inputs": [
        {
          "indexed": true,
          "name": "from",
          "type": "address"
        },
        {
          "indexed": true,
          "name": "to",
          "type": "address"
        },
        {
          "indexed": true,
          "name": "tokenId",
          "type": "uint256"
        }
      ],
      "name": "Transfer",
      "type": "event"
    },
    {
      "anonymous": false,
      "inputs": [
        {
          "indexed": true,
          "name": "owner",
          "type": "address"
        },
        {
          "indexed": true,
          "name": "approved",
          "type": "address"
        },
        {
          "indexed": true,
          "name": "tokenId",
          "type": "uint256"
        }
      ],
      "name": "Approval",
      "type": "event"
    },
    {
      "anonymous": false,
      "inputs": [
        {
          "indexed": true,
          "name": "owner",
          "type": "address"
        },
        {
          "indexed": true,
          "name": "operator",
          "type": "address"
        },
        {
          "indexed": false,
          "name": "approved",
          "type": "bool"
        }
      ],
      "name": "ApprovalForAll",
      "type": "event"
    },
    {
      "constant": true,
      "inputs": [
        {
          "name": "tokenId",
          "type": "uint256"
        }
      ],
      "name": "_lastPrice",
      "outputs": [
        {
          "name": "",
          "type": "uint256"
        }
      ],
      "payable": false,
      "stateMutability": "view",
      "type": "function"
    },
    {
      "constant": true,
      "inputs": [
        {
          "name": "tokenId",
          "type": "uint256"
        }
      ],
      "name": "_multiple",
      "outputs": [
        {
          "name": "",
          "type": "uint16"
        }
      ],
      "payable": false,
      "stateMutability": "view",
      "type": "function"
    },
    {
      "constant": false,
      "inputs": [
        {
          "name": "basePrice",
          "type": "uint256"
        }
      ],
      "name": "setBasePrice",
      "outputs": [],
      "payable": false,
      "stateMutability": "nonpayable",
      "type": "function"
    },
    {
      "constant": false,
      "inputs": [
        {
          "name": "bountyDivisor",
          "type": "uint8"
        }
      ],
      "name": "setBountyDivisor",
      "outputs": [],
      "payable": false,
      "stateMutability": "nonpayable",
      "type": "function"
    },
    {
      "constant": false,
      "inputs": [
        {
          "name": "baseURL",
          "type": "string"
        }
      ],
      "name": "setBaseURL",
      "outputs": [],
      "payable": false,
      "stateMutability": "nonpayable",
      "type": "function"
    },
    {
      "constant": false,
      "inputs": [
        {
          "name": "owner",
          "type": "address"
        }
      ],
      "name": "setOwner",
      "outputs": [],
      "payable": false,
      "stateMutability": "nonpayable",
      "type": "function"
    },
    {
      "constant": false,
      "inputs": [
        {
          "name": "amount",
          "type": "uint256"
        }
      ],
      "name": "withdraw",
      "outputs": [],
      "payable": false,
      "stateMutability": "nonpayable",
      "type": "function"
    },
    {
      "constant": false,
      "inputs": [],
      "name": "withdrawProfit",
      "outputs": [],
      "payable": false,
      "stateMutability": "nonpayable",
      "type": "function"
    },
    {
      "constant": false,
      "inputs": [],
      "name": "setProduction",
      "outputs": [],
      "payable": false,
      "stateMutability": "nonpayable",
      "type": "function"
    },
    {
      "constant": false,
      "inputs": [
        {
          "name": "tokenId",
          "type": "uint256"
        },
        {
          "name": "owner",
          "type": "address"
        }
      ],
      "name": "importCode",
      "outputs": [],
      "payable": false,
      "stateMutability": "nonpayable",
      "type": "function"
    },
    {
      "constant": true,
      "inputs": [],
      "name": "getAllOwned",
      "outputs": [
        {
          "name": "",
          "type": "uint256[]"
        },
        {
          "name": "",
          "type": "address[]"
        }
      ],
      "payable": false,
      "stateMutability": "view",
      "type": "function"
    },
    {
      "constant": true,
      "inputs": [
        {
          "name": "tokenId",
          "type": "uint256"
        }
      ],
      "name": "metadataForToken",
      "outputs": [
        {
          "name": "",
          "type": "uint256"
        },
        {
          "name": "",
          "type": "address"
        },
        {
          "name": "",
          "type": "uint16"
        },
        {
          "name": "",
          "type": "uint256"
        }
      ],
      "payable": false,
      "stateMutability": "view",
      "type": "function"
    },
    {
      "constant": true,
      "inputs": [
        {
          "name": "tokenId",
          "type": "uint256"
        }
      ],
      "name": "priceOf",
      "outputs": [
        {
          "name": "",
          "type": "uint256"
        }
      ],
      "payable": false,
      "stateMutability": "view",
      "type": "function"
    },
    {
      "constant": true,
      "inputs": [
        {
          "name": "tokenId",
          "type": "uint256"
        }
      ],
      "name": "multipleOf",
      "outputs": [
        {
          "name": "",
          "type": "uint16"
        }
      ],
      "payable": false,
      "stateMutability": "view",
      "type": "function"
    },
    {
      "constant": false,
      "inputs": [
        {
          "name": "tokenId",
          "type": "uint256"
        },
        {
          "name": "multiple",
          "type": "uint16"
        }
      ],
      "name": "setMultiple",
      "outputs": [],
      "payable": false,
      "stateMutability": "nonpayable",
      "type": "function"
    },
    {
      "constant": false,
      "inputs": [
        {
          "name": "tokenId",
          "type": "uint256"
        }
      ],
      "name": "grabCode",
      "outputs": [],
      "payable": true,
      "stateMutability": "payable",
      "type": "function"
    },
    {
      "constant": false,
      "inputs": [
        {
          "name": "to",
          "type": "address"
        }
      ],
      "name": "pullBounty",
      "outputs": [],
      "payable": false,
      "stateMutability": "nonpayable",
      "type": "function"
    },
    {
      "constant": true,
      "inputs": [
        {
          "name": "_tokenId",
          "type": "uint256"
        }
      ],
      "name": "tokenURI",
      "outputs": [
        {
          "name": "",
          "type": "string"
        }
      ],
      "payable": false,
      "stateMutability": "view",
      "type": "function"
    },
    {
      "constant": true,
      "inputs": [
        {
          "name": "tokenId",
          "type": "uint256"
        }
      ],
      "name": "northOfToken",
      "outputs": [
        {
          "name": "",
          "type": "uint256"
        }
      ],
      "payable": false,
      "stateMutability": "pure",
      "type": "function"
    },
    {
      "constant": true,
      "inputs": [
        {
          "name": "tokenId",
          "type": "uint256"
        }
      ],
      "name": "southOfToken",
      "outputs": [
        {
          "name": "",
          "type": "uint256"
        }
      ],
      "payable": false,
      "stateMutability": "pure",
      "type": "function"
    },
    {
      "constant": true,
      "inputs": [
        {
          "name": "tokenId",
          "type": "uint256"
        }
      ],
      "name": "eastOfToken",
      "outputs": [
        {
          "name": "",
          "type": "uint256"
        }
      ],
      "payable": false,
      "stateMutability": "pure",
      "type": "function"
    },
    {
      "constant": true,
      "inputs": [
        {
          "name": "tokenId",
          "type": "uint256"
        }
      ],
      "name": "westOfToken",
      "outputs": [
        {
          "name": "",
          "type": "uint256"
        }
      ],
      "payable": false,
      "stateMutability": "pure",
      "type": "function"
    },
    {
      "constant": true,
      "inputs": [
        {
          "name": "tokenId",
          "type": "uint256"
        }
      ],
      "name": "neighborsOfToken",
      "outputs": [
        {
          "name": "",
          "type": "uint256[4]"
        }
      ],
      "payable": false,
      "stateMutability": "pure",
      "type": "function"
    }
  ],
  "bytecode": "0x652e625ce23000600c55600d8054601460ff19909116811762ffff00191661640017630100000060b860020a031916336301000000021790915560c060405260808190527f68747470733a2f2f6c616e64656d69632e696f2f00000000000000000000000060a09081526200007891600e919062000261565b50600f805460ff19169055604080518082018252600881527f4c616e64656d69630000000000000000000000000000000000000000000000006020808301919091528251808401909352600483527f4c414e440000000000000000000000000000000000000000000000000000000090830152908181620001227f01ffc9a700000000000000000000000000000000000000000000000000000000640100000000620001f4810204565b620001567f80ac58cd00000000000000000000000000000000000000000000000000000000640100000000620001f4810204565b6200018a7f780e9d6300000000000000000000000000000000000000000000000000000000640100000000620001f4810204565b81516200019f90600990602085019062000261565b508051620001b590600a90602084019062000261565b50620001ea7f5b5e139f00000000000000000000000000000000000000000000000000000000640100000000620001f4810204565b5050505062000306565b7fffffffff0000000000000000000000000000000000000000000000000000000080821614156200022457600080fd5b7fffffffff00000000000000000000000000000000000000000000000000000000166000908152602081905260409020805460ff19166001179055565b828054600181600116156101000203166002900490600052602060002090601f016020900481019282601f10620002a457805160ff1916838001178555620002d4565b82800160010185558215620002d4579182015b82811115620002d4578251825591602001919060010190620002b7565b50620002e2929150620002e6565b5090565b6200030391905b80821115620002e25760008155600101620002ed565b90565b612f6a80620003166000396000f30060806040526004361061023a5763ffffffff7c010000000000000000000000000000000000000000000000000000000060003504166301ffc9a7811461023f57806306fdde031461028d578063081812fc14610317578063095ea7b31461035857806313af40351461038b57806318160ddd146103b95780631c79b4fc146103e057806322835acc146103f857806323b872dd1461041057806329cc044d146104475780632ba675e61461045f5780632e1a7d4d146104745780632f745c591461048c57806342842e0e146104bd57806344cf661f146104f45780634501efbe1461050957806349f2553a146105355780634e2e470e1461058e5780634f6ccce7146105a65780635adadef7146105be5780636352211e146105ec57806365063805146106045780636a3dc4461461062f57806370a082311461067f578063959499b6146106ad57806395d89b41146106c2578063a22cb465146106d7578063a3bbe5691461070a578063b2bdfa7b14610760578063b88d4fde14610775578063b9186d7d146107f1578063c2b6fb6114610809578063c87b56dd14610828578063ce88a9ce14610840578063d13b894114610855578063d2834a9b1461086a578063ddf3d15f14610882578063de4b32621461089a578063de64a765146108b2578063e121ba7c146108e0578063e566f2b2146108eb578063e58de97114610903578063e6a42d351461091e578063e985e9c51461094f578063f071810014610983578063f9e0edae14610a31578063fe776dd014610a46575b600080fd5b34801561024b57600080fd5b506102797fffffffff0000000000000000000000000000000000000000000000000000000060043516610a9b565b604080519115158252519081900360200190f35b34801561029957600080fd5b506102a2610ad6565b6040805160208082528351818301528351919283929083019185019080838360005b838110156102dc5781810151838201526020016102c4565b50505050905090810190601f1680156103095780820380516001836020036101000a031916815260200191505b509250505060405180910390f35b34801561032357600080fd5b5061032f600435610b6d565b6040805173ffffffffffffffffffffffffffffffffffffffff9092168252519081900360200190f35b34801561036457600080fd5b5061038973ffffffffffffffffffffffffffffffffffffffff60043516602435610bac565b005b34801561039757600080fd5b5061038973ffffffffffffffffffffffffffffffffffffffff60043516610c94565b3480156103c557600080fd5b506103ce610d0d565b60408051918252519081900360200190f35b3480156103ec57600080fd5b506103ce600435610d13565b34801561040457600080fd5b506103ce600435610d47565b34801561041c57600080fd5b5061038973ffffffffffffffffffffffffffffffffffffffff60043581169060243516604435610d75565b34801561045357600080fd5b506103ce600435610e2a565b34801561046b57600080fd5b50610279610e58565b34801561048057600080fd5b50610389600435610e61565b34801561049857600080fd5b506103ce73ffffffffffffffffffffffffffffffffffffffff60043516602435610ebd565b3480156104c957600080fd5b5061038973ffffffffffffffffffffffffffffffffffffffff60043581169060243516604435610f17565b34801561050057600080fd5b506103ce610f38565b34801561051557600080fd5b5061051e610f3e565b6040805161ffff9092168252519081900360200190f35b34801561054157600080fd5b506040805160206004803580820135601f8101849004840285018401909552848452610389943694929360249392840191908190840183828082843750949750610f4d9650505050505050565b34801561059a57600080fd5b5061051e600435610f8b565b3480156105b257600080fd5b506103ce600435610fc3565b3480156105ca57600080fd5b5061038973ffffffffffffffffffffffffffffffffffffffff60043516610ff8565b3480156105f857600080fd5b5061032f60043561107d565b34801561061057600080fd5b506106196110b8565b6040805160ff9092168252519081900360200190f35b34801561063b57600080fd5b506106476004356110c1565b6040518082608080838360005b8381101561066c578181015183820152602001610654565b5050505090500191505060405180910390f35b34801561068b57600080fd5b506103ce73ffffffffffffffffffffffffffffffffffffffff60043516611110565b3480156106b957600080fd5b5061038961115d565b3480156106ce57600080fd5b506102a26111ce565b3480156106e357600080fd5b5061038973ffffffffffffffffffffffffffffffffffffffff60043516602435151561122f565b34801561071657600080fd5b506107226004356112eb565b6040805194855273ffffffffffffffffffffffffffffffffffffffff909316602085015261ffff909116838301526060830152519081900360800190f35b34801561076c57600080fd5b5061032f61134e565b34801561078157600080fd5b50604080516020601f6064356004818101359283018490048402850184019095528184526103899473ffffffffffffffffffffffffffffffffffffffff81358116956024803590921695604435953695608494019181908401838280828437509497506113719650505050505050565b3480156107fd57600080fd5b506103ce600435611399565b34801561081557600080fd5b5061038960043561ffff602435166113ee565b34801561083457600080fd5b506102a26004356114a2565b34801561084c57600080fd5b50610389611594565b34801561086157600080fd5b506103ce6115fc565b34801561087657600080fd5b506103ce600435611602565b34801561088e57600080fd5b506103ce600435611630565b3480156108a657600080fd5b50610389600435611662565b3480156108be57600080fd5b506103ce73ffffffffffffffffffffffffffffffffffffffff60043516611692565b6103896004356116a4565b3480156108f757600080fd5b5061051e600435611880565b34801561090f57600080fd5b5061038960ff600435166118b6565b34801561092a57600080fd5b5061038960043573ffffffffffffffffffffffffffffffffffffffff60243516611915565b34801561095b57600080fd5b5061027973ffffffffffffffffffffffffffffffffffffffff6004358116906024351661195a565b34801561098f57600080fd5b50610998611995565b604051808060200180602001838103835285818151815260200191508051906020019060200280838360005b838110156109dc5781810151838201526020016109c4565b50505050905001838103825284818151815260200191508051906020019060200280838360005b83811015610a1b578181015183820152602001610a03565b5050505090500194505050505060405180910390f35b348015610a3d57600080fd5b506102a2611a97565b348015610a5257600080fd5b50610a5e600435611b25565b604080517dffffffffffffffffffffffffffffffffffffffffffffffffffffffffffff909316835261ffff90911660208301528051918290030190f35b7fffffffff00000000000000000000000000000000000000000000000000000000811660009081526020819052604090205460ff165b919050565b60098054604080516020601f6002600019610100600188161502019095169490940493840181900481028201810190925282815260609390929091830182828015610b625780601f10610b3757610100808354040283529160200191610b62565b820191906000526020600020905b815481529060010190602001808311610b4557829003601f168201915b505050505090505b90565b6000610b7882611b7f565b1515610b8357600080fd5b5060009081526002602052604090205473ffffffffffffffffffffffffffffffffffffffff1690565b6000610bb78261107d565b905073ffffffffffffffffffffffffffffffffffffffff8381169082161415610bdf57600080fd5b3373ffffffffffffffffffffffffffffffffffffffff82161480610c085750610c08813361195a565b1515610c1357600080fd5b60008281526002602052604080822080547fffffffffffffffffffffffff00000000000000000000000000000000000000001673ffffffffffffffffffffffffffffffffffffffff87811691821790925591518593918516917f8c5be1e5ebec7d5bd14f71427d1e84f3dd0314c0f7b2291e5b200ac8c7c3b92591a4505050565b600d546301000000900473ffffffffffffffffffffffffffffffffffffffff163314610cbf57600080fd5b600d805473ffffffffffffffffffffffffffffffffffffffff9092166301000000027fffffffffffffffffff0000000000000000000000000000000000000000ffffff909216919091179055565b60075490565b6000610d418260067f3233343536373839434647484a4d505152565758000000000000000000000000611ba9565b92915050565b6000610d418260067f5857565251504d4a484746433938373635343332000000000000000000000000611ba9565b610d7f338261200e565b1515610d8a57600080fd5b73ffffffffffffffffffffffffffffffffffffffff82161515610dac57600080fd5b610db683826120a3565b610dc08382612144565b610dca828261228c565b808273ffffffffffffffffffffffffffffffffffffffff168473ffffffffffffffffffffffffffffffffffffffff167fddf252ad1be2c89b69c2b068fc378daa952ba7f163c4a11628f55a4df523b3ef60405160405180910390a4505050565b6000610d418260077f5857565251504d4a484746433938373635343332000000000000000000000000611ba9565b600f5460ff1681565b600d546301000000900473ffffffffffffffffffffffffffffffffffffffff163314610e8c57600080fd5b604051339082156108fc029083906000818181858888f19350505050158015610eb9573d6000803e3d6000fd5b5050565b6000610ec883611110565b8210610ed357600080fd5b73ffffffffffffffffffffffffffffffffffffffff83166000908152600560205260409020805483908110610f0457fe5b9060005260206000200154905092915050565b610f338383836020604051908101604052806000815250611371565b505050565b600c5481565b600d54610100900461ffff1681565b600d546301000000900473ffffffffffffffffffffffffffffffffffffffff163314610f7857600080fd5b8051610eb990600e906020840190612e23565b6000908152601060205260409020547e01000000000000000000000000000000000000000000000000000000000000900461ffff1690565b6000610fcd610d0d565b8210610fd857600080fd5b6007805483908110610fe657fe5b90600052602060002001549050919050565b3360009081526011602052604090205480151561101457610eb9565b33600090815260116020526040812055601254611037908263ffffffff6122e216565b60125560405173ffffffffffffffffffffffffffffffffffffffff83169082156108fc029083906000818181858888f19350505050158015610f33573d6000803e3d6000fd5b60008181526001602052604081205473ffffffffffffffffffffffffffffffffffffffff168015156110ae57600080fd5b8091505b50919050565b600d5460ff1681565b6110c9612ea1565b6080604051908101604052806110de84610d13565b81526020016110ec84611602565b81526020016110fa84610d47565b815260200161110884610e2a565b905292915050565b600073ffffffffffffffffffffffffffffffffffffffff8216151561113457600080fd5b5073ffffffffffffffffffffffffffffffffffffffff1660009081526003602052604090205490565b600d546301000000900473ffffffffffffffffffffffffffffffffffffffff16331461118857600080fd5b60125433906108fc906111a39030319063ffffffff6122e216565b6040518115909202916000818181858888f193505050501580156111cb573d6000803e3d6000fd5b50565b600a8054604080516020601f6002600019610100600188161502019095169490940493840181900481028201810190925282815260609390929091830182828015610b625780601f10610b3757610100808354040283529160200191610b62565b73ffffffffffffffffffffffffffffffffffffffff821633141561125257600080fd5b33600081815260046020908152604080832073ffffffffffffffffffffffffffffffffffffffff87168085529083529281902080547fffffffffffffffffffffffffffffffffffffffffffffffffffffffffffffff0016861515908117909155815190815290519293927f17307eab39ab6107e8899845ad3d59bd9653f200f220920489ca2b5937696c31929181900390910190a35050565b60008060008060006112fc86611399565b905061130786611b7f565b156113355761131586611630565b61131e8761107d565b61132788611880565b839450945094509450611346565b600c54945060009350600a92509050805b509193509193565b600d546301000000900473ffffffffffffffffffffffffffffffffffffffff1681565b61137c848484610d75565b611388848484846122f9565b151561139357600080fd5b50505050565b60006113a482611b7f565b156113e6576113df600a6113d36113ba85611880565b61ffff166113c786611630565b9063ffffffff61249816565b9063ffffffff6124cd16565b9050610ad1565b5050600c5490565b816113f88161107d565b73ffffffffffffffffffffffffffffffffffffffff16331461141957600080fd5b60018261ffff161015801561143457506103e88261ffff1611155b151561143f57600080fd5b50600091825260106020526040909120805461ffff9092167e01000000000000000000000000000000000000000000000000000000000000027dffffffffffffffffffffffffffffffffffffffffffffffffffffffffffff909216919091179055565b60606114ad82611b7f565b15156114b857600080fd5b600e805460408051602060026001851615610100026000190190941693909304601f8101849004840282018401909252818152610d419361155b93919290918301828280156115485780601f1061151d57610100808354040283529160200191611548565b820191906000526020600020905b81548152906001019060200180831161152b57829003601f168201915b5050505050611556856124f0565b6126a0565b60408051808201909152600581527f2e6a736f6e00000000000000000000000000000000000000000000000000000060208201526126a0565b600d546301000000900473ffffffffffffffffffffffffffffffffffffffff1633146115bf57600080fd5b600f5460ff16156115cf57600080fd5b600f80547fffffffffffffffffffffffffffffffffffffffffffffffffffffffffffffff00166001179055565b60125481565b6000610d418260077f3233343536373839434647484a4d505152565758000000000000000000000000611ba9565b6000908152601060205260409020547dffffffffffffffffffffffffffffffffffffffffffffffffffffffffffff1690565b600d546301000000900473ffffffffffffffffffffffffffffffffffffffff16331461168d57600080fd5b600c55565b60116020526000908152604090205481565b6000806000806116b2612ea1565b6000806116be88611399565b9650348711156116cd57600080fd5b6040805180820182527dffffffffffffffffffffffffffffffffffffffffffffffffffffffffffff3481168252600060208084018281528d8352601090915293902091518254935161ffff167e01000000000000000000000000000000000000000000000000000000000000029082167fffff000000000000000000000000000000000000000000000000000000000000909416939093171691909117905561177588611b7f565b151561178a57611785338961285f565b611876565b6117938861107d565b955073ffffffffffffffffffffffffffffffffffffffff86163314156117b857600080fd5b6117c286896128ae565b6117cc338961285f565b600d546117e390349060ff1663ffffffff6124cd16565b9450600193506117f2886110c1565b9250600091505b600482101561184d5782826004811061180e57fe5b6020020151905061181e81611b7f565b151561182957611842565b61183b6118358261107d565b866128f6565b6001909301925b6001909101906117f9565b61187686611871611864888863ffffffff61249816565b349063ffffffff6122e216565b6128f6565b5050505050505050565b60008061188c83610f8b565b905060008161ffff1611156118a3578091506110b2565b5050600d54610100900461ffff16919050565b600d546301000000900473ffffffffffffffffffffffffffffffffffffffff1633146118e157600080fd5b600d80547fffffffffffffffffffffffffffffffffffffffffffffffffffffffffffffff001660ff92909216919091179055565b600d546301000000900473ffffffffffffffffffffffffffffffffffffffff16331461194057600080fd5b600f5460ff161561195057600080fd5b610eb9818361285f565b73ffffffffffffffffffffffffffffffffffffffff918216600090815260046020908152604080832093909416825291909152205460ff1690565b606080600060608060006119a7610d0d565b9350836040519080825280602002602001820160405280156119d3578160200160208202803883390190505b50925083604051908082528060200260200182016040528015611a00578160200160208202803883390190505b509150600090505b83811015611a8c57611a1981610fc3565b8382815181101515611a2757fe5b602090810290910101528251611a5290849083908110611a4357fe5b9060200190602002015161107d565b8282815181101515611a6057fe5b73ffffffffffffffffffffffffffffffffffffffff909216602092830290910190910152600101611a08565b509094909350915050565b600e805460408051602060026001851615610100026000190190941693909304601f81018490048402820184019092528181529291830182828015611b1d5780601f10611af257610100808354040283529160200191611b1d565b820191906000526020600020905b815481529060010190602001808311611b0057829003601f168201915b505050505081565b6010602052600090815260409020547dffffffffffffffffffffffffffffffffffffffffffffffffffffffffffff8116907e01000000000000000000000000000000000000000000000000000000000000900461ffff1682565b60009081526001602052604090205473ffffffffffffffffffffffffffffffffffffffff16151590565b600080600080600080871215611bc157879450612003565b611bfc886017890160208110611bd357fe5b1a7f010000000000000000000000000000000000000000000000000000000000000002876129aa565b9350611c09888886612aa6565b92508560001a7f0100000000000000000000000000000000000000000000000000000000000000027effffffffffffffffffffffffffffffffffffffffffffffffffffffffffffff1916847effffffffffffffffffffffffffffffffffffffffffffffffffffffffffffff19161415611fff577ffffffffffffffffffffffffffffffffffffffffffffffffffffffffffffffffe87019150826015880160208110611cb057fe5b1a7f01000000000000000000000000000000000000000000000000000000000000000290508160011415611e69577fffffffffffffffffffffffffffffffffffffffff00000000000000000000000086167f3233343536373839434647484a4d505152565758000000000000000000000000148015611d7057507f56000000000000000000000000000000000000000000000000000000000000007fff000000000000000000000000000000000000000000000000000000000000008216145b15611da757611da083837f3200000000000000000000000000000000000000000000000000000000000000612aa6565b9450612003565b7fffffffffffffffffffffffffffffffffffffffff00000000000000000000000086167f5857565251504d4a484746433938373635343332000000000000000000000000148015611e3957507f32000000000000000000000000000000000000000000000000000000000000007fff000000000000000000000000000000000000000000000000000000000000008216145b15611e6957611da083837f5600000000000000000000000000000000000000000000000000000000000000612aa6565b811515611ff4577fffffffffffffffffffffffffffffffffffffffff00000000000000000000000086167f3233343536373839434647484a4d505152565758000000000000000000000000148015611f0257507f43000000000000000000000000000000000000000000000000000000000000007fff000000000000000000000000000000000000000000000000000000000000008216145b15611f3257611da083837f3200000000000000000000000000000000000000000000000000000000000000612aa6565b7fffffffffffffffffffffffffffffffffffffffff00000000000000000000000086167f5857565251504d4a484746433938373635343332000000000000000000000000148015611fc457507f32000000000000000000000000000000000000000000000000000000000000007fff000000000000000000000000000000000000000000000000000000000000008216145b15611ff457611da083837f4300000000000000000000000000000000000000000000000000000000000000612aa6565b611da0838388611ba9565b8294505b505050509392505050565b60008061201a8361107d565b90508073ffffffffffffffffffffffffffffffffffffffff168473ffffffffffffffffffffffffffffffffffffffff16148061208957508373ffffffffffffffffffffffffffffffffffffffff1661207184610b6d565b73ffffffffffffffffffffffffffffffffffffffff16145b806120995750612099818561195a565b91505b5092915050565b8173ffffffffffffffffffffffffffffffffffffffff166120c38261107d565b73ffffffffffffffffffffffffffffffffffffffff16146120e357600080fd5b60008181526002602052604090205473ffffffffffffffffffffffffffffffffffffffff1615610eb957600090815260026020526040902080547fffffffffffffffffffffffff000000000000000000000000000000000000000016905550565b60008060006121538585612ae4565b60008481526006602090815260408083205473ffffffffffffffffffffffffffffffffffffffff8916845260059092529091205490935061219b90600163ffffffff6122e216565b73ffffffffffffffffffffffffffffffffffffffff86166000908152600560205260409020805491935090839081106121d057fe5b9060005260206000200154905080600560008773ffffffffffffffffffffffffffffffffffffffff1673ffffffffffffffffffffffffffffffffffffffff1681526020019081526020016000208481548110151561222a57fe5b600091825260208083209091019290925573ffffffffffffffffffffffffffffffffffffffff8716815260059091526040902080549061226e906000198301612ec0565b50600093845260066020526040808520859055908452909220555050565b60006122988383612bb9565b5073ffffffffffffffffffffffffffffffffffffffff9091166000908152600560209081526040808320805460018101825590845282842081018590559383526006909152902055565b600080838311156122f257600080fd5b5050900390565b60008061231b8573ffffffffffffffffffffffffffffffffffffffff16612c7b565b151561232a576001915061248f565b6040517f150b7a02000000000000000000000000000000000000000000000000000000008152336004820181815273ffffffffffffffffffffffffffffffffffffffff898116602485015260448401889052608060648501908152875160848601528751918a169463150b7a0294938c938b938b93909160a490910190602085019080838360005b838110156123ca5781810151838201526020016123b2565b50505050905090810190601f1680156123f75780820380516001836020036101000a031916815260200191505b5095505050505050602060405180830381600087803b15801561241957600080fd5b505af115801561242d573d6000803e3d6000fd5b505050506040513d602081101561244357600080fd5b50517fffffffff0000000000000000000000000000000000000000000000000000000081167f150b7a020000000000000000000000000000000000000000000000000000000014925090505b50949350505050565b6000808315156124ab576000915061209c565b508282028284828115156124bb57fe5b04146124c657600080fd5b9392505050565b6000808083116124dc57600080fd5b82848115156124e757fe5b04949350505050565b604080516020808252818301909252606091839183916000918291829185918082016104008038833901905050945060009350600092505b60208310156125b5576008830260020a860291507fff000000000000000000000000000000000000000000000000000000000000008216156125aa5781858581518110151561257357fe5b9060200101907effffffffffffffffffffffffffffffffffffffffffffffffffffffffffffff1916908160001a9053506001909301925b600190920191612528565b836040519080825280601f01601f1916602001820160405280156125e3578160200160208202803883390190505b509050600092505b8383101561269557848381518110151561260157fe5b9060200101517f010000000000000000000000000000000000000000000000000000000000000090047f010000000000000000000000000000000000000000000000000000000000000002818481518110151561265a57fe5b9060200101907effffffffffffffffffffffffffffffffffffffffffffffffffffffffffffff1916908160001a9053506001909201916125eb565b979650505050505050565b606080606080606060008088955087945084518651016040519080825280601f01601f1916602001820160405280156126e3578160200160208202803883390190505b50935083925060009150600090505b85518110156127a057858181518110151561270957fe5b9060200101517f010000000000000000000000000000000000000000000000000000000000000090047f010000000000000000000000000000000000000000000000000000000000000002838380600101945081518110151561276857fe5b9060200101907effffffffffffffffffffffffffffffffffffffffffffffffffffffffffffff1916908160001a9053506001016126f2565b5060005b84518110156128525784818151811015156127bb57fe5b9060200101517f010000000000000000000000000000000000000000000000000000000000000090047f010000000000000000000000000000000000000000000000000000000000000002838380600101945081518110151561281a57fe5b9060200101907effffffffffffffffffffffffffffffffffffffffffffffffffffffffffffff1916908160001a9053506001016127a4565b5090979650505050505050565b6128698282612c83565b600780546000838152600860205260408120829055600182018355919091527fa66cc928b5edb82af9bd49922954155ab7b0942694bea4ce44661d9a8736c688015550565b6128b88282612cf8565b6000818152600b60205260409020546002600019610100600184161502019091160415610eb9576000818152600b60205260408120610eb991612ee4565b60405160009073ffffffffffffffffffffffffffffffffffffffff84169083156108fc0290849084818181858888f193505050509050801515610f335773ffffffffffffffffffffffffffffffffffffffff8316600090815260116020526040902054612969908363ffffffff612db416565b73ffffffffffffffffffffffffffffffffffffffff84166000908152601160205260409020556012546129a2908363ffffffff612db416565b601255505050565b6000805b601481101561209c578281601481106129c357fe5b1a7f0100000000000000000000000000000000000000000000000000000000000000027effffffffffffffffffffffffffffffffffffffffffffffffffffffffffffff1916847effffffffffffffffffffffffffffffffffffffffffffffffffffffffffffff19161415612a9e5780601314612a7057826001820160148110612a4857fe5b1a7f010000000000000000000000000000000000000000000000000000000000000002612a97565b8260001a7f0100000000000000000000000000000000000000000000000000000000000000025b915061209c565b6001016129ae565b60ff600892830390920260020a91820219929092167f0100000000000000000000000000000000000000000000000000000000000000909204021790565b8173ffffffffffffffffffffffffffffffffffffffff16612b048261107d565b73ffffffffffffffffffffffffffffffffffffffff1614612b2457600080fd5b73ffffffffffffffffffffffffffffffffffffffff8216600090815260036020526040902054612b5b90600163ffffffff6122e216565b73ffffffffffffffffffffffffffffffffffffffff90921660009081526003602090815260408083209490945591815260019091522080547fffffffffffffffffffffffff0000000000000000000000000000000000000000169055565b60008181526001602052604090205473ffffffffffffffffffffffffffffffffffffffff1615612be857600080fd5b600081815260016020818152604080842080547fffffffffffffffffffffffff00000000000000000000000000000000000000001673ffffffffffffffffffffffffffffffffffffffff88169081179091558452600390915290912054612c4e91612db4565b73ffffffffffffffffffffffffffffffffffffffff90921660009081526003602052604090209190915550565b6000903b1190565b73ffffffffffffffffffffffffffffffffffffffff82161515612ca557600080fd5b612caf828261228c565b604051819073ffffffffffffffffffffffffffffffffffffffff8416906000907fddf252ad1be2c89b69c2b068fc378daa952ba7f163c4a11628f55a4df523b3ef908290a45050565b6000806000612d078585612dc6565b600084815260086020526040902054600754909350612d2d90600163ffffffff6122e216565b9150600782815481101515612d3e57fe5b9060005260206000200154905080600784815481101515612d5b57fe5b60009182526020822001919091556007805484908110612d7757fe5b6000918252602090912001556007805490612d96906000198301612ec0565b50600093845260086020526040808520859055908452909220555050565b6000828201838110156124c657600080fd5b612dd082826120a3565b612dda8282612144565b604051819060009073ffffffffffffffffffffffffffffffffffffffff8516907fddf252ad1be2c89b69c2b068fc378daa952ba7f163c4a11628f55a4df523b3ef908390a45050565b828054600181600116156101000203166002900490600052602060002090601f016020900481019282601f10612e6457805160ff1916838001178555612e91565b82800160010185558215612e91579182015b82811115612e91578251825591602001919060010190612e76565b50612e9d929150612f24565b5090565b6080604051908101604052806004906020820280388339509192915050565b815481835581811115610f3357600083815260209020610f33918101908301612f24565b50805460018160011615610100020316600290046000825580601f10612f0a57506111cb565b601f0160209004906000526020600020908101906111cb91905b610b6a91905b80821115612e9d5760008155600101612f2a5600a165627a7a723058204a44064094ac25f8b665022ae90d4cfde72df0b2e4d0fb5f9ab22235c6112d730029",
  "source": "pragma solidity ^0.4.24;\n\n/* The latest stable Truffle is Truffle 4, which also uses Solidity 4. The highest OpenZeppelin that is compatible with Solidity 4 is 2.0.0. */\n\n/*  2020 Landemic, Inc. */\n\nimport \"openzeppelin-solidity/contracts/token/ERC721/ERC721Full.sol\";\n\ncontract Landemic is ERC721Full(\"Landemic\",\"LAND\") {\n\n    uint256 public _basePrice = 51000000000000; // $0.01 ETH/USD as of 8/20/2019\n    uint8 public _bountyDivisor = 20; // 5% to each player\n    uint16 public _defaultMultiple = 100; // using 1 decimal point divisibility, max 1000\n    address public _owner = msg.sender;\n    string public _baseURL = \"https://landemic.io/\";\n    bool public _production = false;\n\n    struct Price {\n        uint240 lastPrice;\n        uint16 multiple;\n    }\n    mapping(uint256 => Price) public _prices;\n\n    // When recepient cannot receive the bounty,\n    // it is stored here and can be pulled manually\n    mapping(address => uint256) public failedPayouts;\n    uint256 public failedPayoutsSum;\n\n    /* Admin */\n\n    modifier onlyContractOwner() {\n        require(msg.sender == _owner);\n        _;\n    }\n\n    modifier onlyPreProduction() {\n        require(_production == false);\n        _;\n    }\n\n    function _lastPrice(uint256 tokenId) public view returns (uint256) {\n        return uint256(_prices[tokenId].lastPrice);\n    }\n\n    function _multiple(uint256 tokenId) public view returns (uint16) {\n        return _prices[tokenId].multiple;\n    }\n\n    function setBasePrice(uint256 basePrice) onlyContractOwner public {\n        _basePrice = basePrice;\n    }\n\n    function setBountyDivisor(uint8 bountyDivisor) onlyContractOwner public {\n        _bountyDivisor = bountyDivisor;\n    }\n\n    function setBaseURL(string baseURL) public onlyContractOwner {\n        _baseURL = baseURL;\n    }\n\n    function setOwner(address owner) onlyContractOwner public {\n        _owner = owner;\n    }\n\n    // Allows the owner to withdraw profits and failed payouts.\n    // Owner should check failedPayoutsSum to not withdraw extra.\n    function withdraw(uint256 amount) onlyContractOwner public {\n        msg.sender.transfer(amount);\n    }\n\n    function withdrawProfit() onlyContractOwner public {\n        msg.sender.transfer(address(this).balance.sub(failedPayoutsSum));\n    }\n\n    function setProduction() public onlyContractOwner onlyPreProduction {\n        _production = true;\n    }\n\n    function importCode(uint256 tokenId, address owner) public onlyContractOwner onlyPreProduction {\n        _mint(owner, tokenId);\n    }\n\n    /* Temp Functions Until Server-Side Component */\n\n    function getAllOwned() public view returns (uint256[], address[]) {\n\n        uint totalOwned = totalSupply();\n\n        uint256[] memory ownedUint256 = new uint256[](totalOwned);\n        address[] memory ownersAddress = new address[](totalOwned);\n\n        for (uint i = 0; i < totalOwned; i++) {\n            ownedUint256[i] = tokenByIndex(i);\n            ownersAddress[i] = ownerOf(ownedUint256[i]);\n        }\n\n        return (ownedUint256, ownersAddress);\n\n    }\n\n    function metadataForToken(uint256 tokenId) public view returns (uint256, address, uint16, uint256) {\n        uint256 price = priceOf(tokenId);\n\n        if (_exists(tokenId)) {\n            return (_lastPrice(tokenId), ownerOf(tokenId), multipleOf(tokenId), price);\n        }\n        return (_basePrice, 0, 10, price);\n    }\n\n    function priceOf(uint256 tokenId) public view returns (uint256) {\n        if (_exists(tokenId)) {\n            return _lastPrice(tokenId).mul(uint256(multipleOf(tokenId))).div(10);\n        }\n        return _basePrice;\n    }\n\n    function multipleOf(uint256 tokenId) public view returns (uint16) {\n        uint16 multiple = _multiple(tokenId);\n        if (multiple > 0) {\n            return multiple;\n        }\n        return _defaultMultiple;\n    }\n\n    /* Adjust metadata */\n\n    modifier onlyTokenOwner(uint256 tokenId) {\n        require(msg.sender == ownerOf(tokenId));\n        _;\n    }\n\n    function setMultiple(uint256 tokenId, uint16 multiple) public onlyTokenOwner(tokenId) {\n        require(multiple >= 1 && multiple <= 1000);\n        _prices[tokenId].multiple = multiple;\n    }\n\n    /* Buy & Sell */\n\n    // TODO:\n    // function grabCodes(uint256[] tokens) public payable {\n    //     for (uint i = 0; i < tokens.length; i++) {\n    //         _mint(msg.sender, tokens[i]);\n    //     }\n    // }\n\n\n\n    function _pushOrDelayBounty(address to, uint256 amount) internal {\n        bool success = to.send(amount);\n        if (!success) {\n            failedPayouts[to] = failedPayouts[to].add(amount);\n            failedPayoutsSum = failedPayoutsSum.add(amount);\n        }\n    }\n\n    function grabCode(uint256 tokenId) public payable {\n        // uint256 tokenId = uint256(stringToBytes32(code));\n\n        uint256 price = priceOf(tokenId);  // _lastPrice * 0.1  <=  price  <=  _lastPrice * 10\n        require(msg.value >= price);\n\n        _prices[tokenId] = Price(uint240(msg.value), uint16(0));\n\n        if (!_exists(tokenId)) {\n            _mint(msg.sender, tokenId);\n            return;\n        }\n\n        address owner = ownerOf(tokenId);\n        require(owner != msg.sender);\n\n        _burn(owner, tokenId);\n        _mint(msg.sender, tokenId);\n\n        uint256 bounty = msg.value.div(_bountyDivisor);  // 5%\n        uint256 bountiesCount = 1; // Landemic.\n        uint256[4] memory neighbors = neighborsOfToken(tokenId);\n        for (uint i = 0; i < 4; i++) {\n            uint256 neighbor = neighbors[i];\n            if (!_exists(neighbor)) {\n                continue;\n            }\n            _pushOrDelayBounty(ownerOf(neighbor), bounty);\n            bountiesCount++;\n        }\n\n        _pushOrDelayBounty(owner, msg.value.sub(bounty.mul(bountiesCount)));  // 75%\n    }\n\n    function pullBounty(address to) public {\n        uint256 bounty = failedPayouts[msg.sender];\n        if (bounty == 0) {\n            return;\n        }\n        failedPayouts[msg.sender] = 0;\n        failedPayoutsSum = failedPayoutsSum.sub(bounty);        \n        to.transfer(bounty);\n    }\n\n\n    /* ERC721Metadata overrides */\n\n    /**\n    * @dev Returns an URI for a given token ID\n    * @dev Throws if the token ID does not exist. May return an empty string.\n    * @param _tokenId uint256 ID of the token to query\n    */\n    function tokenURI(uint256 _tokenId) external view returns (string) {\n        require(_exists(_tokenId));\n        return strConcat(strConcat(_baseURL, uint256ToString(_tokenId)),\".json\");\n    }\n\n    /* Utilities */\n\n    // https://ethereum.stackexchange.com/a/9152/3847\n    function uint256ToString(uint256 y) private pure returns (string) {\n        bytes32 x = bytes32(y);\n        bytes memory bytesString = new bytes(32);\n        uint charCount = 0;\n        for (uint j = 0; j < 32; j++) {\n            byte char = byte(bytes32(uint(x) * 2 ** (8 * j)));\n            if (char != 0) {\n                bytesString[charCount] = char;\n                charCount++;\n            }\n        }\n        bytes memory bytesStringTrimmed = new bytes(charCount);\n        for (j = 0; j < charCount; j++) {\n            bytesStringTrimmed[j] = bytesString[j];\n        }\n        return string(bytesStringTrimmed);\n    }\n\n    function stringToBytes32(string memory source) private pure returns (bytes32 result) {\n        bytes memory testEmptyStringTest = bytes(source);\n        if (testEmptyStringTest.length == 0) {\n            return 0x0;\n        }\n\n        assembly {\n            result := mload(add(source, 32))\n        }\n    }\n\n    // https://ethereum.stackexchange.com/questions/729/how-to-concatenate-strings-in-solidity\n    function strConcat(string _a, string _b) private pure returns (string) {\n        bytes memory bytes_a = bytes(_a);\n        bytes memory bytes_b = bytes(_b);\n        string memory ab = new string (bytes_a.length + bytes_b.length);\n        bytes memory bytes_ab = bytes(ab);\n        uint k = 0;\n        for (uint i = 0; i < bytes_a.length; i++) bytes_ab[k++] = bytes_a[i];\n        for (i = 0; i < bytes_b.length; i++) bytes_ab[k++] = bytes_b[i];\n        return string(bytes_ab);\n    }\n\n    // TODO: This should be a separate library: OLC.sol\n\n    bytes20 constant DIGITS = bytes20('23456789CFGHJMPQRVWX');\n    bytes20 constant STIGID = bytes20('XWVRQPMJHGFC98765432');\n\n    function nextChar(byte c, bytes20 digits) private pure returns (byte) {\n        for (uint i = 0; i < 20; i++)\n            if (c == digits[i])\n                return (i == 19) ? digits[0] : digits[i+1];\n\n    }\n\n    function replaceChar(uint256 tokenId, uint pos, byte c) private pure returns (uint256) {\n\n        uint shift = (8 - pos) * 8;\n        uint256 insert = uint256(c) << shift;\n        uint256 mask = ~(uint256(0xff) << shift);\n\n        return tokenId & mask | insert;\n    }\n\n    function incrementChar(uint256 tokenId, int pos, bytes20 digits) private pure returns (uint256) {\n\n        if (pos < 0)\n            return tokenId;\n\n        byte c = nextChar(bytes32(tokenId)[23 + uint(pos)], digits);\n        uint256 updated = replaceChar(tokenId, uint(pos), c);\n        if (c == digits[0]) {\n            int nextPos = pos - 2;\n            byte nextPosChar = bytes32(updated)[23 + uint(nextPos)];\n            // Longitude has only 18 slices.\n            if (nextPos == 1) {\n                if (digits == DIGITS && nextPosChar == 'V') {\n                    return replaceChar(updated, uint(nextPos), '2');\n                }\n                if (digits == STIGID && nextPosChar == '2') {\n                    return replaceChar(updated, uint(nextPos), 'V');\n                }\n            }\n            // Latitude has only 9 slices.\n            if (nextPos == 0) {\n                if (digits == DIGITS && nextPosChar == 'C') {\n                    return replaceChar(updated, uint(nextPos), '2');\n                }\n                if (digits == STIGID && nextPosChar == '2') {\n                    return replaceChar(updated, uint(nextPos), 'C');\n                }\n            }\n            return incrementChar(updated, nextPos, digits);\n        }\n        return updated;\n    }\n\n    function northOfToken(uint256 tokenId) public pure returns (uint256) {\n        return incrementChar(tokenId, 6, DIGITS);\n    }\n\n    function southOfToken(uint256 tokenId) public pure returns (uint256) {\n        return incrementChar(tokenId, 6, STIGID);\n    }\n\n    function eastOfToken(uint256 tokenId) public pure returns (uint256) {\n        return incrementChar(tokenId, 7, DIGITS);\n    }\n\n    function westOfToken(uint256 tokenId) public pure returns (uint256) {\n        return incrementChar(tokenId, 7, STIGID);\n    }\n\n    function neighborsOfToken(uint256 tokenId) public pure returns (uint256[4]) {\n        return [\n            northOfToken(tokenId),\n            eastOfToken(tokenId),\n            southOfToken(tokenId),\n            westOfToken(tokenId)\n        ];\n    }\n\n}\n",
  "sourcePath": "/Users/phil/Transferbox/Code/landemic/landemic/contracts/Landemic.sol",
  "compiler": {
    "name": "solc",
    "version": "0.4.25+commit.59dbf8f1.Emscripten.clang"
  },
  "schemaVersion": "2.0.2",
  "updatedAt": "2019-08-20T20:02:26.736Z"
}