{
  "contractName": "Proxy",
  "abi": [
    {
      "constant": true,
      "inputs": [],
      "name": "Token",
      "outputs": [
        {
          "name": "",
          "type": "address"
        }
      ],
      "payable": false,
      "stateMutability": "view",
      "type": "function"
    },
    {
      "inputs": [
        {
          "name": "target",
          "type": "address"
        }
      ],
      "payable": false,
      "stateMutability": "nonpayable",
      "type": "constructor"
    },
    {
      "constant": false,
      "inputs": [
        {
          "name": "tokens",
          "type": "uint256[]"
        }
      ],
      "name": "grabCodes",
      "outputs": [],
      "payable": true,
      "stateMutability": "payable",
      "type": "function"
    },
    {
      "constant": false,
      "inputs": [
        {
          "name": "tokens",
          "type": "uint256[]"
        },
        {
          "name": "prices",
          "type": "uint256[]"
        }
      ],
      "name": "grabCodesSafe",
      "outputs": [],
      "payable": true,
      "stateMutability": "payable",
      "type": "function"
    }
  ],
  "bytecode": "0x608060405234801561001057600080fd5b506040516020806106ba833981016040525160008054600160a060020a03909216600160a060020a0319909216919091179055610668806100526000396000f3006080604052600436106100565763ffffffff7c010000000000000000000000000000000000000000000000000000000060003504166389788a31811461005b578063c2412676146100a5578063f248bfd9146100e3575b600080fd5b604080516020600480358082013583810280860185019096528085526100a3953695939460249493850192918291850190849080828437509497506101649650505050505050565b005b3480156100b157600080fd5b506100ba610382565b6040805173ffffffffffffffffffffffffffffffffffffffff9092168252519081900360200190f35b604080516020600480358082013583810280860185019096528085526100a395369593946024949385019291829185019084908082843750506040805187358901803560208181028481018201909552818452989b9a99890198929750908201955093508392508501908490808284375094975061039e9650505050505050565b600080805b835183101561037457838381518110151561018057fe5b9060200190602002015191506000809054906101000a900473ffffffffffffffffffffffffffffffffffffffff1673ffffffffffffffffffffffffffffffffffffffff1663b9186d7d836040518263ffffffff167c010000000000000000000000000000000000000000000000000000000002815260040180828152602001915050602060405180830381600087803b15801561021c57600080fd5b505af1158015610230573d6000803e3d6000fd5b505050506040513d602081101561024657600080fd5b505160008054604080517fe121ba7c00000000000000000000000000000000000000000000000000000000815260048101879052905193945073ffffffffffffffffffffffffffffffffffffffff9091169263e121ba7c9285926024808201939182900301818588803b1580156102bc57600080fd5b505af11580156102d0573d6000803e3d6000fd5b505060008054604080517f23b872dd00000000000000000000000000000000000000000000000000000000815230600482015233602482015260448101899052905173ffffffffffffffffffffffffffffffffffffffff90921695506323b872dd9450606480820194509082900301818387803b15801561035057600080fd5b505af1158015610364573d6000803e3d6000fd5b5050600190940193506101699050565b61037c6105e2565b50505050565b60005473ffffffffffffffffffffffffffffffffffffffff1681565b60008080805b85518410156105d25785848151811015156103bb57fe5b90602001906020020151925084848151811015156103d557fe5b9060200190602002015191506000809054906101000a900473ffffffffffffffffffffffffffffffffffffffff1673ffffffffffffffffffffffffffffffffffffffff1663b9186d7d846040518263ffffffff167c010000000000000000000000000000000000000000000000000000000002815260040180828152602001915050602060405180830381600087803b15801561047157600080fd5b505af1158015610485573d6000803e3d6000fd5b505050506040513d602081101561049b57600080fd5b505160005490915073ffffffffffffffffffffffffffffffffffffffff1663e121ba7c6104c88484610622565b856040518363ffffffff167c0100000000000000000000000000000000000000000000000000000000028152600401808281526020019150506000604051808303818588803b15801561051a57600080fd5b505af115801561052e573d6000803e3d6000fd5b505060008054604080517f23b872dd000000000000000000000000000000000000000000000000000000008152306004820152336024820152604481018a9052905173ffffffffffffffffffffffffffffffffffffffff90921695506323b872dd9450606480820194509082900301818387803b1580156105ae57600080fd5b505af11580156105c2573d6000803e3d6000fd5b5050600190950194506103a49050565b6105da6105e2565b505050505050565b30318015156105f05761061f565b604051339082156108fc029083906000818181858888f1935050505015801561061d573d6000803e3d6000fd5b505b50565b600081831015610633575081610636565b50805b929150505600a165627a7a72305820e44d3c4cc0028b5ac8aba5a6add3e0d7fe9831ae1d505f5e86ea752c31dd140c0029",
  "source": "pragma solidity ^0.4.24;\n\ninterface Main {\n  function grabCode(uint256) external payable;\n  function priceOf(uint256) external returns (uint256);\n  function transferFrom(address,address,uint256) external;\n}\n\ncontract Proxy {\n  Main public Token;\n\n  constructor(address target) public {\n    Token = Main(target);\n  }\n\n  function grabCodes(uint256[] tokens) public payable {\n    for (uint i = 0; i < tokens.length; i++) {\n      uint256 tokenId = tokens[i];\n      //  There is a possible race condition with tokenId owner.\n      // When the owner sees that his Token is going to be bought,\n      // he can increase price by sending a tx with high gas price.\n      //  In order to avoid this race, user of grabCodes should\n      // supply just enough ETH to buy all the tiles at expected\n      // price. In case of price increase, the whole tx will be\n      // reverted.\n      //  Another option is to use grabCodesSafe().\n      uint256 price = Token.priceOf(tokenId);\n      Token.grabCode.value(price)(tokenId);\n      Token.transferFrom(address(this), msg.sender, tokenId);\n    }\n    returnChange();\n  }\n  \n  function grabCodesSafe(uint256[] tokens, uint256[] prices) public payable {\n    for (uint i = 0; i < tokens.length; i++) {\n      uint256 tokenId = tokens[i];\n      uint256 expectedPrice = prices[i];\n      uint256 actualPrice = Token.priceOf(tokenId);\n      // In case price was lowered down, buy with lowest price.\n      Token.grabCode.value(min(expectedPrice, actualPrice))(tokenId);\n      Token.transferFrom(address(this), msg.sender, tokenId);\n    }\n    returnChange();\n  }\n  \n  function returnChange() internal {\n    uint256 change = address(this).balance;\n    if (change == 0) {\n      return;\n    }\n    msg.sender.transfer(change);\n  }\n  \n  function min(uint256 a, uint256 b) internal pure returns(uint256) {\n    if (a < b) {\n      return a;\n    }\n    return b;\n  }\n}\n",
  "sourcePath": "/Users/phil/Transferbox/Code/landemic/contract/contracts/Proxy.sol",
  "compiler": {
    "name": "solc",
    "version": "0.4.25+commit.59dbf8f1.Emscripten.clang"
  },
  "schemaVersion": "2.0.2",
  "updatedAt": "2019-09-11T19:27:08.252Z"
}